:100000000C9402010C942A010C942A010C942A01EC
:100010000C942A010C942A010C942A010C942A01B4
:100020000C942A010C942A010C942A010C942A01A4
:100030000C942A010C942A010C942A010C942A0194
:100040000C94020A0C942A010C944F0B0C94290B6B
:100050000C942A010C942A010C942A010C942A0174
:100060000C9461100C942A01CF0630083008300837
:10007000300830083008EB06300830083008300807
:1000800030083007300752076A076A076A07940783
:100090009407940794073008300830083008300877
:1000A0003008300889028906A406140700407A1037
:1000B000F35A00A0724E18090010A5D4E80000E819
:1000C0007648170000E40B54020000CA9A3B000077
:1000D00000E1F505000080969800000040420F0006
:1000E0000000A08601000000102700000000E803C7
:1000F000000000006400000000000A000000000092
:100100000100000000002C76D888DC674F0823DF50
:10011000C1DFAE59E1B1B796E5E3E453C63AE65123
:10012000997696E8E6C28426EB898C9B62ED407C4A
:100130006FFCEFBC9C9F40F2BAA56FA5F490055AE6
:100140002AF75C936B6CF9676DC11BFCE0E40D470B
:10015000FEF520E6B500D0ED902E0300943577052E
:100160000080841E080000204E0A000000C80C33E6
:100170003333330F986E12831141EF8D2114893B75
:10018000E65516CFFEE6DB18D1844B381BF77C1DF5
:10019000901DA4BBE424203284725E228100C9F148
:1001A00024ECA1E53D2700000000240027002A00E0
:1001B00000000000250028002B00040404040404AF
:1001C0000404020202020202030303030303010206
:1001D00004081020408001020408102001020408D5
:1001E00010200000000800020100000304070000C6
:1001F000000000000000000000002300260029008D
:100200006F135A1411241FBECFEFD8E0DEBFCDBF4D
:1002100024E0A2EDB2E001C01D92A23FB207E1F7D7
:1002200012E0A0E0B1E0EAE9F7E302C005900D9228
:10023000A23DB107D9F711E0C1E0D1E004C0219798
:10024000FE010E94BE19C030D107C9F70E94F0110B
:100250000C94C01B0C94000008951092DC021092C4
:10026000DB021092DA020E94D80B60E080E00E946C
:10027000A90B82EA91E00E94A40B61E081E00E9458
:10028000A90B81EB91E00E94A40B62E08DEF0E942C
:10029000A90B8FEB91E00E94A40B63E08DEF0E940D
:1002A000A90B8BEC91E00C94A40B4F925F926F9290
:1002B0007F928F929F92AF92BF92CF92DF92EF92F6
:1002C000FF920F931F93CF93DF93CDB7DEB7E397E2
:1002D0000FB6F894DEBF0FBECDBF81E080934A0415
:1002E0008FB7F8944091E8025091E9026091EA02D8
:1002F0007091EB028FBF80913A0490913B04A091E2
:100300003C04B0913D04481B590B6A0B7B0B809158
:10031000460490914704A0E0B0E084179507A60733
:10032000B70708F0D8C0912C412C512C32014394CE
:1003300080914504981608F053C0E92CF12CE09107
:100340004204F0914304EE0DFF1D40E060818EED0C
:1003500093E00E94D311D301C201092C04C0880F7D
:10036000991FAA1FBB1F0A94D2F75C016C01C094AD
:10037000D094812C80914404881618F5082D10E043
:10038000E0914004F0914104E00FF11F60818EED97
:1003900093E00E94720F0C5F1F4F000F111FF801B6
:1003A000E252FC4F892B29F4808191818A299B2973
:1003B00004C0808191818C219D21918380838394CD
:1003C000D9CF8091420490914304FC01EE0DFF1DB2
:1003D00041E060818EED93E00E94D3119394A8CF09
:1003E0006EEDC62E63E0D62E8AE194E0F6012FEF83
:1003F0003FEF478D50A1452B21F4148E368F258F6A
:1004000011A236968E179F07A1F710E056E0B52E81
:1004100080914404181770F500E0E12EF12CC7011B
:10042000880F991F9C012A513C4F79012091450466
:100430000217F0F4D7014D915C91002E02C0569541
:1004400047950A94E2F7642F6170129F900111247E
:10045000200F311DEEEDF3E080E0A58DB68D2A175B
:100460003B0709F4EEC58F5F36968A30B1F7CDC5EC
:100470001F5FCECF80E0F60191A1911181E0F6E0FF
:10048000CF0ED11C2AE1C21624E0D206A1F79FB7F5
:10049000F8944091E8025091E9026091EA0270916B
:1004A000EB029FBF40933A0450933B0460933C049B
:1004B00070933D04882379F08091FF03882359F0DD
:1004C0008091FD039091FE03019729F41091FA03A6
:1004D000111104C0C5C510924A04C2C5612F85E33D
:1004E00093E00E94FA0863ED71E085E393E00E94D7
:1004F000140B812F012E000C990BAA0BBB0BFC01D6
:10050000B397E232F10508F0ABC5EC5CFF4F0C94F9
:10051000BE198091DC028111FAC08091DB02811149
:10052000C7C20E94D80B8091DA028111CDC023E5A9
:10053000C22E24E0D22E3AE1A32E31E0B32EE12CDC
:10054000F12C31E0E316F10419F461E087E006C014
:1005500082E0E816F10429F461E088E00E94D60DFB
:1005600013C093E0E916F10419F461E08CE0F6CFD2
:10057000A4E0EA16F10449F3B5E0EB16F10461F3E7
:10058000E6E0EE16F10489F3D60114964D915C91E4
:1005900015976D917C918DE794E00E946C0803E0C3
:1005A00010E062E084E00E94A90BB801CE01019640
:1005B0000E94D00C4D815E8169817A818DE794E043
:1005C0000E946C08CE0101960E94E20A68EE73E078
:1005D00080E090E00E94C8090150110911F70E94C3
:1005E000D80B02E310E0412C512C32010E94290D5E
:1005F000BC01990F880B990B0E9433179B01AC012A
:10060000C301B2010E9488182B013C01015011095D
:1006100069F720E030E048E452E40E94F418F50164
:1006200061937193819391935F011BA21AA21DA202
:100630001CA21FA21EA28E010F5F1F4F22E044E0EA
:100640000E946914BC01CE0182960E94CB0ABE01B1
:100650006E5D7F4FC8010E94B60C41E050E063E33D
:1006600072E0C8010E94570A882309F4F4C4B60155
:10067000CE0101960E94970A0E947F0CCE0101963E
:100680000E94E20ACE0182960E94E20A62E370E0D2
:1006900080E090E00E94C80960E087E00E94D60DEB
:1006A00060E088E00E94D60D60E08CE00E94D60DEC
:1006B000FFEFEF1AFF0A26E0C20ED11C37E0E31667
:1006C000F10409F03ECFC4C1813009F0C4C120E07B
:1006D00030E040E85FEB60911A0170911B0180915E
:1006E0001C0190911D010E942C17811123C061E013
:1006F0000E94A90B86ED91E00E94A40B64EF71E0CB
:1007000080E090E00E94C8090E942D0174C160E061
:1007100070E089E00E94690960E070E08AE00E9470
:10072000690960E070E08BE00E94690987E392E06C
:100730000E942C0C0E94D80B61E084E00E94A90B5F
:1007400086EE91E00E94A40B9EE0C92E91E0D92E86
:10075000F12CF11003C061E087E007C081E061E0A7
:10076000F81202C088E001C08CE00E94D60D68EE4D
:1007700073E080E090E00E94C80902E310E0812C61
:10078000912C54010E94290DBC01990F880B990BE3
:100790000E9433179B01AC01C501B4010E94881867
:1007A0004B015C010150110969F720E030E048E499
:1007B00052E40E94F418D6016D937D938D939D931E
:1007C0006D011BA21AA21DA21CA21FA21EA28E01B5
:1007D0000F5F1F4F22E044E00E946914BC01CE016C
:1007E00082960E94CB0ACE0182960E947F0CCE0197
:1007F00082960E94E20A62E370E080E090E00E944C
:10080000C80960E087E00E94D60D60E088E00E94A1
:10081000D60D60E08CE00E94D60DF394B3E0FB129D
:1008200098CFC0902A01D0902B01E0902C01F0903D
:100830002D01A701960160910E0170910F01809129
:100840001001909111010E9487184B015C01A701D2
:10085000960160911E0170911F018091200190917D
:1008600021010E9487189B01AC01C501B4010E94BF
:10087000F41820E030E04FE753E40E9492170E9402
:1008800066197093D9026093D802C0902E01D0905F
:100890002F01E0903001F0903101A70196016091A5
:1008A00012017091130180911401909115010E9421
:1008B00087184B015C01A70196016091220170919C
:1008C000230180912401909125010E9487189B01AA
:1008D000AC01C501B4010E94F41820E030E04FE7FC
:1008E00053E40E9492170E9466197093D702609396
:1008F000D602C0903201D0903301E0903401F090E4
:100900003501A70196016091160170911701809140
:100910001801909119010E9487184B015C01A701F1
:100920009601609126017091270180912801909194
:1009300029010E9487189B01AC01C501B4010E94E6
:10094000F41820E030E04FE753E40E9492170E9431
:1009500066197093D5026093D402CE018E960E94E0
:10096000D00C6091D6027091D702CE0188960E9479
:10097000D00C6091D8027091D902C8010E94D00CAD
:10098000B801CE0182960E94B60CCE0182960E94DA
:10099000960CBE01685D7F4F0E94970A0E94960CDC
:1009A000BE01625D7F4F0E94970A0E947F0CCE01BC
:1009B00082960E94E20AC8010E94E20ACE0188964D
:1009C0000E94E20ACE018E960E94E20A6091D8024D
:1009D0007091D90289E00E9469096091D6027091F4
:1009E000D7028AE00E9469096091D4027091D50211
:1009F0008BE00E9469090E94D80B60E080E00E94B1
:100A0000A90B8EEE91E00E94A40B61E088E00E94A9
:100A1000A90B8CEF91E00E94A40B62E08CEF0E9486
:100A2000A90B83E092E00E94A40B63E084E00E94A3
:100A3000A90B81E192E00E94A40B81E08093DC028B
:100A40000E9455018091D3028823D1F31092D302E2
:100A50000E942D0105C3823011F50E94D80B86E15A
:100A600092E00E94A40B61E080E00E94A90B85E265
:100A700092E00E94A40B62E08DEF0E94A90B85E337
:100A800092E00E94A40B81E080930D018093DB0231
:100A90000E9455018091D3028823D1F3D7CF8330B0
:100AA00009F0DEC26FEF70E08FE00E946909D8C2E2
:100AB00060910201CE018E960E94FC0C60910101B2
:100AC000CE0188960E94FC0C60910001CE01019637
:100AD0000E94FC0CBE016F5F7F4FCE0182960E9488
:100AE000B60CBE01685D7F4FCE0182960E94970AC8
:100AF000BE01625D7F4F0E94970A0E944C0A70936C
:100B0000D9026093D802CE0182960E94E20ACE01F9
:100B100001960E94E20ACE0188960E94E20ACE0166
:100B20008E960E94E20A60910701CE018E960E9485
:100B3000FC0C60910601CE0188960E94FC0C60912D
:100B40000501CE0101960E94FC0CBE016F5F7F4F34
:100B5000CE0182960E94B60CBE01685D7F4FCE0129
:100B600082960E94970ABE01625D7F4F0E94970A9B
:100B70000E944C0A7093D7026093D602CE018296EF
:100B80000E94E20ACE0101960E94E20ACE018896F6
:100B90000E94E20ACE018E960E94E20A60910C0148
:100BA000CE018E960E94FC0C60910B01CE018896BE
:100BB0000E94FC0C60910A01CE0101960E94FC0C7F
:100BC000BE016F5F7F4FCE0182960E94B60CBE01C0
:100BD000685D7F4FCE0182960E94970ABE01625DDA
:100BE0007F4F0E94970A0E944C0A7093D50260932F
:100BF000D402CE0182960E94E20ACE0101960E94A2
:100C0000E20ACE0188960E94E20ACE018E960E94E8
:100C1000E20A6091D8027091D9026F3F710519F014
:100C200014F06FEF70E07093D9026093D802E090F7
:100C3000D602F090D702EFEFEE16F10421F01CF08F
:100C4000EE24EA94F12CF092D702E092D6020091C1
:100C5000D4021091D5020F3F110519F014F00FEFD7
:100C600010E01093D5020093D40289E00E94690934
:100C7000B7018AE00E946909B8018BE00E94690906
:100C8000B801CE018E960E94D00C6091D602709170
:100C9000D702CE0188960E94D00C6091D802709144
:100CA000D902CE0101960E94D00CBE016F5F7F4F2A
:100CB000CE0182960E94B60CCE0182960E94960CBE
:100CC000BE01685D7F4F0E94970A0E94960CBE018C
:100CD000625D7F4F0E94970A0E947F0CCE01829630
:100CE0000E94E20ACE0101960E94E20ACE01889695
:100CF0000E94E20ACE018E960E94E20A81E0809371
:100D00000D018DE0E0E0F1E0DF011D928A95E9F749
:100D1000A4CE8091DC0281111BC08091DB02811185
:100D200017C06091DA02623008F08CEF0E94A90BC4
:100D300083E392E00E94A40B6091DA02662311F033
:100D4000615021C063E01FC08091DC02882329F03C
:100D500086E492E00E942C0C83C18091DB02811119
:100D6000F7CF6091DA02623008F08CEF0E94A90B95
:100D700083E392E00E94A40B6091DA02633011F0E9
:100D80006F5F01C060E06093DA02623010F480E0CF
:100D900001C08CEF0E94A90B84E492E042C08091D4
:100DA000DB028823A9F280910D0162E084500E9449
:100DB000A90B83E392E00E94A40B80910D01833084
:100DC00011F0883011F48D5F22C08D3011F481E074
:100DD0001EC08F5F1CC08091DB02882309F4B8CF4E
:100DE00080910D0162E084500E94A90B83E392E0A0
:100DF0000E94A40B80910D01863011F08B3011F40C
:100E0000835005C0813011F48DE001C08150809382
:100E10000D0180910D0162E084500E94A90B85E3D1
:100E200092E00E94A40B1CC18091DC02811105C0DC
:100E30008091DB02882309F48BCF60E070E089E0C9
:100E40000E94690960E070E08AE00E94690960E040
:100E500070E08BE00E94690981E08093D30200C1B9
:100E60008091DB02882309F473CF612FCE010196B4
:100E70000E94E70ACE0101960E944C0A6093D202BA
:100E8000CE0101960E94E20A00910D0161E0802FDF
:100E90000E94A90B41E0612F8DE794E00E9444106D
:100EA000E02FACC08091DB02882309F451CF809100
:100EB0000D01E82FF0E0E050FF4F9081963010F0E8
:100EC00011E001C012E01093D20261E00E94A90B70
:100ED000812F90C08091DB02882309F439CF612FE4
:100EE000CE0101960E94E70ACE0101960E944C0AAB
:100EF0006093D202CE0101960E94E20A80910D0118
:100F0000813021F0863011F08B3061F4E82FF0E071
:100F1000E050FF4F9081963010F091E001C092E0D8
:100F20009093D20261E062C00091DB02002309F4D9
:100F30000FCFE0910D01E13021F0E63011F0EB3000
:100F400061F4F0E0E050FF4F8081863010F081E0E6
:100F500001C082E08093D20246C0E23021F0E73047
:100F600011F0EC30C9F4F0E0E250FF4F80818230A4
:100F700051F0612FCE0182960E94E70ACE0182963F
:100F80000E944C0A02C000E065E06093D202002398
:100F900051F1CE01829625C0E33021F0E83011F006
:100FA000ED3009F58E2F90E080509F4FFC01339774
:100FB00020812230C1F431968081853050F4612F38
:100FC000CE0101960E94E70ACE0101960E944C0ACA
:100FD00002C000E065E06093D202002321F0CE0160
:100FE00001960E94E20A61E080910D010E94A90B26
:100FF0008091D2020E943F0CE0910D01F0E0E1509F
:10100000FF4F8091D20280832BC040FF1CC0EEEDC9
:10101000F3E080E090E0448D411117C0E0913E0480
:10102000F0913F04E20FF31F4081B89EF001B99E9A
:10103000F00D1124E252FC4F448F368F258F10A201
:10104000178E0E943C0D0F5FF1C9019636968A30CB
:10105000910509F7F8CFCE0101960E94850A07CBCA
:10106000E3960FB6F894DEBF0FBECDBFDF91CF91F0
:101070001F910F91FF90EF90DF90CF90BF90AF90B6
:101080009F908F907F906F905F904F9008953FB7A3
:10109000F8948091E4029091E502A091E602B0916B
:1010A000E70226B5A89B05C02F3F19F00196A11DA8
:1010B000B11D3FBFBA2FA92F982F8827820F911DEE
:1010C000A11DB11DBC01CD0142E0660F771F881F35
:1010D000991F4A95D1F70895CF92DF92EF92FF9230
:1010E0000F931F93CF93DF936C017A018B01C0E0C4
:1010F000D0E0CE15DF0581F0D8016D918D01D601CC
:10110000ED91FC910190F081E02DC6010995892BAC
:1011100011F02196EECF7E01C701DF91CF911F9193
:101120000F91FF90EF90DF90CF900895FC01538DC9
:10113000448D252F30E0842F90E0821B930B5417B1
:1011400010F0CF96089501970895FC01918D828D3E
:10115000981761F0828DDF01A80FB11D5D968C910B
:10116000928D9F5F9F73928F90E008958FEF9FEF16
:101170000895FC01918D828D981731F0828DE80FD2
:10118000F11D858D90E008958FEF9FEF08950E94E7
:10119000AB1B0F931F93CF93DF93EC018881998151
:1011A000009729F02A813B812617370788F48B01A5
:1011B0006F5F7F4F0E94E51A009761F099838883E3
:1011C0001B830A832C813D81232B11F4FC011082A7
:1011D00081E001C080E0DF91CF911F910F910895D0
:1011E00085E393E00E94410E21E0892B09F420E081
:1011F000822F0895EF92FF920F931F93CF93DF9367
:10120000EC0181E0888F9B8D8C8D981305C0E88957
:10121000F989808185FD26C0F62E0B8D10E00F5FC9
:101220001F4F0F731127E02E8C8DE8120CC00FB6E4
:1012300007FCFACFE889F989808185FFF5CFCE01D7
:101240000E94F30FF1CF8B8DFE01E80FF11DE35AE1
:10125000FF4FF0829FB7F8940B8FEA89FB8980815A
:1012600080620AC09FB7F894EE89FF896083E8899D
:10127000F98980818370806480839FBF81E090E0E2
:10128000DF91CF911F910F91FF90EF900895CF9331
:10129000DF93EC01888D8823C9F0EA89FB8980817E
:1012A00085FD05C0A889B9898C9186FD0FC00FB650
:1012B00007FCF5CF808185FFF2CFA889B9898C9191
:1012C00085FFEDCFCE010E94F30FE7CFDF91CF91E5
:1012D00008951F93CF93DF93182FEB0161E00E94D5
:1012E000050E209711F460E004C0CF3FD10539F41A
:1012F00061E0812FDF91CF911F910C94D60DE12FEA
:10130000F0E0EE51FE4FE491E330F9F048F4E130C3
:10131000B9F0E230A1F584B5806284BDC8BD34C0A7
:10132000E730E9F0E83019F1E43049F580918000C8
:10133000806280938000D0938B00C0938A0024C089
:1013400084B5806884BDC7BD1FC08091800080685F
:1013500080938000D0938900C093880015C080914D
:10136000B00080688093B000C093B3000DC080913E
:10137000B00080628093B000C093B40005C0C03854
:10138000D1050CF0B5CFAFCFDF91CF911F9108956C
:101390008F929F92AF92BF92CF92DF92EF92FF9285
:1013A0006B017C010E9447084B015C01C114D10410
:1013B000E104F104F1F00E944708DC01CB01881937
:1013C0009909AA09BB09883E9340A105B10570F3AC
:1013D00021E0C21AD108E108F10888EE880E83E006
:1013E000981EA11CB11CC114D104E104F10419F729
:1013F000DDCFFF90EF90DF90CF90BF90AF909F90A8
:101400008F9008951F920F920FB60F9211242F9371
:101410003F938F939F93AF93BF938091E8029091F6
:10142000E902A091EA02B091EB023091E30223E0DD
:10143000230F2D3720F40196A11DB11D05C026E80C
:10144000230F0296A11DB11D2093E3028093E802B1
:101450009093E902A093EA02B093EB028091E40238
:101460009091E502A091E602B091E7020196A11DDC
:10147000B11D8093E4029093E502A093E602B0933D
:10148000E702BF91AF919F918F913F912F910F9064
:101490000FBE0F901F901895FC01808191810097DD
:1014A00011F00C94891460E070E0CB010895EF9284
:1014B000FF920F931F93CF93DF936115710511F482
:1014C00080E01CC041155105C1F07B01EC018C810D
:1014D0009D818A01080F191FB801CE010E94C90819
:1014E000882371F3288139818C819D81B701820F16
:1014F000931F0E94B91B1D830C8381E0DF91CF9164
:101500001F910F91FF90EF900895CF93DF93EC011F
:1015100088819981009711F00E945C1A19821882C3
:101520001D821C821B821A82DF91CF910895CF9376
:10153000DF93EC01FB0144815581608171810E9440
:10154000570A811103C0CE010E94850ACE01DF91A6
:10155000CF910895EF92FF920F931F93CF93DF9354
:10156000EC017B018A01BA010E94C908811104C003
:10157000CE010E94850A07C01D830C83B7018881B4
:1015800099810E94B91BCE01DF91CF911F910F91DC
:10159000FF90EF900895CF93DF93EC0161157105F3
:1015A00059F0FB0101900020E9F73197AF01461B8C
:1015B000570B0E94AA0A02C00E94850ACE01DF9141
:1015C000CF910895FC01808191810C945C1ACF9396
:1015D000DF9300D0CDB7DEB7FC01118210821382F9
:1015E00012821582148269831A82BE016F5F7F4F57
:1015F0000E94CB0A0F900F90DF91CF910895FC01CC
:101600001182108213821282158214826115710573
:1016100051F0FB0101900020E9F73197AF01461B23
:10162000570B0C94AA0A08956115710579F0FB0116
:1016300001900020E9F73197AF01461B570BDC0101
:10164000ED91FC910280F381E02D099480E090E01F
:1016500008951F920F920FB60F9211242F933F936C
:101660004F935F936F937F938F939F93AF93BF93AA
:10167000EF93FF9385E393E00E94F30FFF91EF91C7
:10168000BF91AF919F918F917F916F915F914F919A
:101690003F912F910F900FBE0F901F9018951F92A2
:1016A0000F920FB60F9211242F938F939F93EF9366
:1016B000FF93E0914503F09146038081E0914B0355
:1016C000F0914C0382FD12C0908180914E038F5F98
:1016D0008F7320914F03821751F0E0914E03F0E099
:1016E000EB5CFC4F958F80934E0301C08081FF918E
:1016F000EF919F918F912F910F900FBE0F901F90A0
:10170000189596E0899FD0011124A252BC4F909663
:101710007C936E935F9791E091969C9391979091B3
:101720004A04E0914B04F0914C04992339F030972E
:1017300051F0811108C08091FA0304C0309719F06C
:101740005C968C9109940895BC018DE794E00C940B
:10175000140BCF93DF93CDB7DEB728970FB6F8946D
:10176000DEBF0FBECDBF98E0E4E5F1E0DE011196EB
:1017700001900D929A95E1F790918504961710F4D7
:101780006FEF690FFE013196E60FF11DE60FF11DB7
:101790006081680F606840E08DE794E028960FB69E
:1017A000F894DEBF0FBECDBFDF91CF910C944410F3
:1017B00040E061E08DE794E00E9444108BE39FE1FC
:1017C0000197F1F70895809112038111FCCF413206
:1017D00008F040E281E080931203809311039FEFB1
:1017E0009093100310920F03940F90930E03809325
:1017F0000D0380910D03660F682B60930D0380919C
:101800000C03813061F410920C0380910D038093DE
:10181000BB008091BC0083FDF8CF85EC01C085EE54
:101820008093BC00809112038130E1F380910F031B
:10183000841710F440910F03ACEEB2E0E5E1F3E061
:1018400080E0841721F09D9191938F5FFACF1092E1
:101850001403809313030895CF93DF93BC0185E3B2
:1018600093E00E94140BEC0163ED71E085E393E0DB
:101870000E94140B8C0F9D1FDF91CF910895CF9282
:10188000DF92EF92FF920F931F93CF93DF93CDB729
:10189000DEB7A1970FB6F894DEBF0FBECDBF282FDD
:1018A00030E040E050E019A28E010F5D1F4F8AE04A
:1018B000C82ED12CE12CF12CCA01B901A701960147
:1018C0000E949C19605DF80162938F01211531051A
:1018D0004105510589F7BF018DE794E00E94140B83
:1018E000A1960FB6F894DEBF0FBECDBFDF91CF91AA
:1018F0001F910F91FF90EF90DF90CF900895CF93BD
:10190000DF93FC01448155816081718185E393E01F
:101910000E946C08EC0163ED71E085E393E00E94A6
:10192000140B8C0F9D1FDF91CF9108950F931F9380
:10193000CF93DF9300D0CDB7DEB78C0180E28983EF
:101940001A8241E050E0BE016F5F7F4FC8010E94E4
:10195000570A811103C0C8010E94850AC8010F906F
:101960000F90DF91CF911F910F910895FB01DC0142
:1019700011961C921E9213961C921E921297159607
:101980001C921E9214978617970749F06081718107
:101990006115710521F0448155810C94AA0A0895BE
:1019A0000F931F93CF93DF93CDB7DEB762970FB638
:1019B000F894DEBF0FBECDBF8C01CB01F8011182C0
:1019C000108213821282158214824AE0BE016F5F78
:1019D0007F4F0E94B014BE016F5F7F4FC8010E940D
:1019E000CB0A62960FB6F894DEBF0FBECDBFDF9173
:1019F000CF911F910F9108950F931F93CF93DF9372
:101A0000CDB7DEB729970FB6F894DEBF0FBECDBFB6
:101A10008C01862FF80111821082138212821582A6
:101A200014824AE0BE016F5F7F4F90E00E94D014A5
:101A3000BE016F5F7F4FC8010E94CB0A29960FB687
:101A4000F894DEBF0FBECDBFDF91CF911F910F91F4
:101A5000089580E480937C0080917A008064809374
:101A60007A0080917A0086FDFCCF809178002091E9
:101A7000790090E0922B0895CF92DF92EF92FF923F
:101A80000F931F9396E0899FF0011124E252FC4FBF
:101A900011A2278D30A12130310539F158F02230C3
:101AA000310509F447C02330310509F04FC060E02B
:101AB00070E044C0662309F449C061E070E00E9410
:101AC000810B2FB7F8948091E8029091E902A091E0
:101AD000EA02B091EB022FBF809336049093370453
:101AE000A0933804B093390431C09FB7F894C090E4
:101AF000E802D090E902E090EA02F090EB029FBF8A
:101B00000091360410913704209138043091390443
:101B1000C01AD10AE20AF30A00914804109149045C
:101B200020E030E00C151D052E053F0518F462E09D
:101B300070E004C061110AC063E070E01F910F9172
:101B4000FF90EF90DF90CF900C94810B1F910F913D
:101B5000FF90EF90DF90CF900895833081F028F4CC
:101B6000813099F08230A1F008958730A9F0883053
:101B7000B9F08430D1F4809180008F7D03C08091D2
:101B800080008F7780938000089584B58F7702C09E
:101B900084B58F7D84BD08958091B0008F7703C098
:101BA0008091B0008F7D8093B00008951F93CF93F4
:101BB000DF93282F30E0F901EE51FE4F8491F901B7
:101BC000E253FE4FD491F901E654FE4FC491CC2369
:101BD000C1F0162F81110E94AD0DEC2FF0E0EE0F39
:101BE000FF1FE055FE4FA591B4919FB7F8941111D6
:101BF00004C08C91D095D82302C0EC91DE2BDC93ED
:101C00009FBFDF91CF911F910895CF93DF9390E015
:101C1000FC01E253FE4F2491FC01E654FE4F8491F7
:101C2000882361F190E0880F991FFC01EA55FE4F6F
:101C3000C591D491FC01E055FE4FA591B49161117D
:101C400009C09FB7F8948881209582238883EC91FE
:101C50002E230BC0623061F49FB7F8948881322F35
:101C6000309583238883EC912E2B2C939FBF06C045
:101C70008FB7F894E8812E2B28838FBFDF91CF9107
:101C80000895FC01918D228D892F90E0805C9F4FFB
:101C9000821B91098F739927089580E090E0892B2A
:101CA00029F00E94F00881110C940000089585ED40
:101CB0008093BC008091BC0084FDFCCF1092120385
:101CC00008954091C904262F30E0240F311D2132A0
:101CD0003105DCF4209112032430C9F4FC0180E0CA
:101CE00090E0861758F43091C9042191DC01A75582
:101CF000BB4FA30FB11D2C930196F3CF8091C90464
:101D0000680F6093C90480E0089581E0089582E03F
:101D10000895089508950895E091140380911303A0
:101D2000E81730F4F0E0EB5EFC4F808190E008951E
:101D30008FEF9FEF089590911403809113039817EC
:101D400050F4E92FF0E0EB5EFC4F208130E09F5F24
:101D50009093140302C02FEF3FEFC90108958091C3
:101D6000130390E020911403821B91090895CF92F0
:101D7000DF92EF92FF920F931F93CF93DF937C013B
:101D8000CB018A012091ED04222389F0EB016B0144
:101D9000C40ED51ECC15DD0569F06991D701ED9112
:101DA000FC910190F081E02DC7010995F3CF642FDC
:101DB0000E94610EC801DF91CF911F910F91FF909A
:101DC000EF90DF90CF900895CF93DF931F92CDB720
:101DD000DEB769832091ED042223D1F02091E10246
:101DE000203240F021E030E0FC013383228380E0A8
:101DF00090E015C08091E202E82FF0E0E757FB4F3A
:101E0000998190838F5F8093E2028093E10205C005
:101E100061E0CE0101960E94610E81E090E00F909A
:101E2000DF91CF9108953091E102313208F04AC03C
:101E3000809112038111FCCF9091EC0422E0209359
:101E40001203609311032FEF2093100310920F03DE
:101E500030930E03E9E8F4E0ACEEB2E020E0321794
:101E600021F041914D932F5FFACF10920D032091F5
:101E70000D03990F922B90930D0390910C039130C9
:101E800061F410920C0390910D039093BB0090911C
:101E9000BC0093FDF8CF95EC01C095EE9093BC008B
:101EA000909112039230E1F3909110039F3F79F0EB
:101EB00080911003803241F080911003803331F023
:101EC00084E005C081E003C082E001C083E010929D
:101ED000E2021092E1021092ED040895089580E06C
:101EE00090E00895CF92DF92EF92FF920F931F93AD
:101EF000CF93DF9321E030E0790102C0EE0CFF1CAC
:101F00006A95E2F76C0120E7C20ED11CD6014C9114
:101F100050E0FC01E159FF4F608170E0EC01CD58C9
:101F2000DF4F888199810E94E30B88819981DC01D0
:101F3000ED91FC910284F385E02D09958C01F60169
:101F40008081823070F088819981DC01ED91FC9173
:101F50000284F385E02D099520E030E0382F022B34
:101F6000132B0E211F2181E090E00E151F0511F0AB
:101F700080E090E0DF91CF911F910F91FF90EF9063
:101F8000DF90CF900895CF93DF9370E0FB01EE5187
:101F9000FE4F8491FB01E253FE4FD491FB01E654C6
:101FA000FE4FC491CC2391F081110E94AD0DEC2F16
:101FB000F0E0EE0FFF1FEA50FE4FA591B491EC91B7
:101FC000ED2381E090E021F480E002C080E090E029
:101FD000DF91CF910895862F642F0C94D60D862F14
:101FE000642F0C94050EFC01848DDF01A80FB11D38
:101FF000A35ABF4F2C91848D90E001968F7399273F
:10200000848FA689B7892C93A089B1898C9183701C
:1020100080648C93938D848D981306C00288F38915
:10202000E02D80818F7D80830895FC01248131E043
:102030003093ED042093EC041092E2021092E1023E
:102040008385682B82ED93E00E94E40E61E082EDCF
:1020500093E00C94130F0F931F93CF938C01C62F13
:102060000E9415106C2F6460C8010E9415106C2F1F
:102070006B7FC8010E94151083EC90E00197F1F787
:10208000CF911F910F9108950F931F93CF93DF93DB
:102090008C01C62FD42F607F642B0E942B1080E10F
:1020A000C89FB00111246D2BC801DF91CF911F9102
:1020B0000F910C942B1041E00E94441081E090E0BD
:1020C00008951F920F920FB60F9211242F933F93F2
:1020D0004F935F936F937F938F939F93AF93BF9330
:1020E000EF93FF938091B900887F803609F49CC0FC
:1020F00068F5883209F45BC090F4803109F454C06B
:1021000038F4882309F4F6C0883009F44DC0F6C0CD
:10211000883109F44CC0803209F45DC0EFC08034CE
:1021200009F468C048F4803309F455C0883309F0D5
:10213000E5C080931003D8C0803509F44FC08835BE
:1021400009F45DC0883409F0D9C0D6C0883909F4D3
:10215000C7C0A8F4883709F467C038F4883609F492
:1021600063C0803709F460C0C9C0883809F4B8C0BA
:10217000803909F45FC0803809F0C0C05BC0803B83
:1021800009F486C038F4803A09F466C0883A09F444
:102190007FC0B4C0803C09F4A7C0883C09F4A4C047
:1021A000883B09F48AC0AAC080910D0310C09091A9
:1021B0000F0380910E03981770F5E0910F0381E0F3
:1021C0008E0F80930F03F0E0E451FD4F80818093E8
:1021D000BB0085EC86C0809310038EC0E0910F0396
:1021E00081E08E0F80930F038091BB00F0E0E451FB
:1021F000FD4F808390910F0380910E036EC0E0919C
:102200000F0381E08E0F80930F038091BB00F0E0FD
:10221000E451FD4F80838091110381116DC081E0F5
:1022200080930C0384EA61C083E0809312031092D0
:10223000EB04CFCF8091EB04803208F051C0E091E5
:10224000EB0481E08E0F8093EB048091BB00F0E003
:10225000E553FB4F8083BDCF85EC8093BC0010928B
:1022600012038091EB04803230F4E091EB04F0E053
:10227000E553FB4F10826091EB0470E0E091DD02CA
:10228000F091DE028BEC94E009951092EB0436C0DD
:1022900084E0809312031092CA041092C904E09162
:1022A000DF02F091E00209958091C904811105C017
:1022B00081E08093C9041092A904E091CA0481E0EE
:1022C0008E0F8093CA04F0E0E755FB4F8081809326
:1022D000BB009091CA048091C904981708F479CF83
:1022E00085E88093BC000AC085EC8093BC00109206
:1022F000120304C0109210030E94570EFF91EF9139
:10230000BF91AF919F918F917F916F915F914F910D
:102310003F912F910F900FBE0F901F901895EF9245
:10232000FF920F931F93CF93DF93EC017B01FC018E
:10233000E159FF4F808191E09093ED048093EC048C
:102340001092E2021092E1028E010D581F4FD80147
:102350008D919C91DC01ED91FC910190F081E02D3B
:102360000995FE01E059FF4F8081823058F0F80155
:1023700080819181DC01ED91FC910190F081E02D53
:102380006F2D099561E0F801808191810E94130F02
:10239000CF58DF4FE882F982DF91CF911F910F91E3
:1023A000FF90EF90089521E030E002C0220F331F2C
:1023B0006A95E2F7FC01EF58FF4F442329F0408172
:1023C0005181242B352B06C02095309540815181B9
:1023D0002423352331832083608171810C948F11F4
:1023E000789484B5826084BD84B5816084BD85B5F0
:1023F000826085BD85B5816085BD80916E008160FC
:1024000080936E00109281008091810082608093A1
:1024100081008091810081608093810080918000A3
:102420008160809380008091B10084608093B100CE
:102430008091B00081608093B00080917A008460C8
:1024400080937A0080917A00826080937A008091F4
:102450007A00816080937A0080917A00806880930E
:102460007A001092C10061E087E00E94050E61E0F1
:1024700088E00E94050E61E08CE00E94050E60E09D
:102480008EE00E94050EE0914503F091460382E044
:102490008083E0914103F09142031082E091430375
:1024A000F09144038FEC808310924D03E091490337
:1024B000F0914A0386E08083E0914703F09148035E
:1024C000808180618083E0914703F091480380819F
:1024D00088608083E0914703F091480380818068A1
:1024E0008083E0914703F091480380818F7D808352
:1024F0006FEF7FEF8EED93E00E948F1140914E04BD
:1025000050E060914D0470E080915104909152042C
:102510000E94E30B8091510490915204DC01ED91F3
:10252000FC910284F385E02D0995909350048093EB
:102530004F0480914E048230C0F0809151049091FC
:102540005204DC01ED91FC910284F385E02D0995A4
:1025500020E030E0382F80914F0490915004282BD8
:10256000392B3093500420934F041092140310928F
:1025700013031092E2021092E1021092120381E022
:102580008093110310920C0361E082E10E94D60D4A
:1025900061E083E10E94D60D8091B9008E7F809327
:1025A000B9008091B9008D7F8093B90088E4809351
:1025B000B80085E48093BC0089E89EE09093E00237
:1025C0008093DF028AE89EE09093DE028093DD0232
:1025D0001092820480918704823018F098E09093E2
:1025E00082048093850462E370E080E090E00E94C2
:1025F000C809609188048DE794E00E94151068EE88
:1026000073E080E090E00E94C80960E38DE794E009
:102610000E942B10CBE4D6E4CE010197F1F760E3E2
:102620008DE794E00E942B102197F1F760E38DE78E
:1026300094E00E942B1083E592E00197F1F760E2AD
:102640008DE794E00E942B1060918204606240E06C
:102650008DE794E00E94441084E08093830440E07E
:102660006CE08DE794E00E9444100E94D80B82E059
:102670008093840440E066E08DE794E00E9444107B
:1026800040E062E08DE794E00E9444108BE39FE11C
:102690000197F1F788E08093880460E08DE794E08B
:1026A0000E94151061E083E00E94A90B86E592E08C
:1026B0000E94A40B62E081E00E94A90B81E692E0F7
:1026C0000E94A40B68EE73E080E090E00E94C809CD
:1026D0000E942D010E9455010E944D0EFBCF1092C9
:1026E00038031092370388EE93E0A0E0B0E08093C7
:1026F000390390933A03A0933B03B0933C0320E645
:1027000031E0309336032093350325EC30E03093ED
:1027100042032093410324EC30E0309344032093A0
:10272000430320EC30E0309346032093450321EC33
:1027300030E0309348032093470322EC30E030939D
:102740004A032093490326EC30E030934C03209356
:102750004B0310924E0310924F03109250031092AD
:1027600051031092D5031092D4038093D603909313
:10277000D703A093D803B093D90382E791E0909355
:10278000D3038093D2031092800410927F0484E8D4
:1027900091E090937E0480937D0487E2809381048E
:1027A00080E18093860484E08093870410928804FB
:1027B00068E672E083E594E00E94FF0A64E772E055
:1027C00089E594E00E94FF0A63E872E08FE594E0F7
:1027D0000E94FF0A64E972E085E694E00E94FF0A25
:1027E00064EA72E08BE694E00E94FF0A62EB72E01A
:1027F00081E794E00E94FF0A62EC72E087E794E0D0
:102800000E94FF0A1092E0031092E4031092E30387
:102810001092E503EEEDF3E08AE194E0148E10A24D
:10282000178E11A236968E179F07C1F78AE391E0A3
:10283000909341048093400486E391E09093430495
:102840008093420484E080934404809345048EE3A3
:1028500091E090933F0480933E048AE090E090934F
:1028600047048093460484EF91E090934904809359
:10287000480410924C0410924B0410923A041092A7
:102880003B0410923C0410923D0410924A048CE9DF
:1028900091E09093DF038093DE0380E280934D0408
:1028A00081E080934E0482ED93E0909352048093F4
:1028B00051040895CF93DF93CDE7D4E02697CE015E
:1028C0000E94E20A84E0C335D807C1F7DF91CF91B7
:1028D0000895EF920F931F93CF93DF93E80147FD85
:1028E00002C034E001C034E1042E000C550B57FF48
:1028F00003C0519541955109E32E022F242FAE01BB
:102900000E94EA14CE01DF91CF911F910F91EF90B9
:1029100008951F93FC0199278827BC01E894119121
:102920001032E9F3193010F01E30C8F31B3251F0A9
:102930001D3249F4689406C00E94BB14610F711DDA
:10294000811D911D119110531A30B0F33EF49095F2
:102950008095709561957F4F8F4F9F4F1F91089580
:10296000BB274A3031F4992322F4BDE2909581953A
:102970009F4F0C94D114592F482F372F262F660FB5
:10298000771F881F991F660F771F881F991F620F77
:10299000731F841F951F660F771F881F991F089547
:1029A000BB27FB015527AA27880F991FAA1FA41729
:1029B00010F0A41B83955051B9F7A05DAA3308F01D
:1029C000A95DA193009779F7B111B1931192CB0151
:1029D0000C941C17A9E0B0E0E0EFF4E10C94561859
:1029E0006A01122FB02E2BE3201720F0FF24F3945E
:1029F000F00E02C02CE3F22E0F2D27E0AE014F5F48
:102A00005F4F0E944416BC014981842F8970813038
:102A100031F0E1FC06C0E0FE06C090E205C09DE298
:102A200003C09BE201C090E05E2D507143FF3CC0AB
:102A3000911102C083E001C084E0811718F4212FB6
:102A4000281B01C020E051110BC0F601822F30E29B
:102A5000882319F031938150FBCFC20ED11C20E0A6
:102A6000992329F0D6019C93F60131966F01C60196
:102A70000396E2FE0AC03EE4D6013C9341E411967F
:102A80004C93119712963C9306C03EE6F6013083B4
:102A900041E641833283FC01322F40E2332309F4C3
:102AA00042C041933150FACF42FF44C0911102C05D
:102AB00083E001C084E0811718F4212F281B01C096
:102AC00020E051110BC0F601822F30E2882319F06B
:102AD00031938150FBCFC20ED11C20E0992329F005
:102AE000D6019C93F60131966F01C6010396E2FE72
:102AF0000BC039E4D6013C933EE411963C93119708
:102B000036E412963C9307C039E6F60130833EE680
:102B1000318336E63283FC01322F40E2332319F051
:102B200041933150FBCFFC01E20FF11D10828EEF7B
:102B30009FEFA6C021E030E0911102C020E030E01C
:102B4000161617061CF4FB01319602C0E1E0F0E016
:102B50002E0F3F1FBB2021F0EB2DF0E0319602C07D
:102B6000E0E0F0E02E0F3F1FE12FF0E02E173F07CF
:102B70001CF4121B212F01C020E08E2D887159F406
:102B8000F601822F30E2882319F031938150FBCF78
:102B9000C20ED11C20E0992329F0D6019C93F601A6
:102BA00031966F0151110BC0F601822F90E38823FB
:102BB00019F091938150FBCFC20ED11C20E00F2D54
:102BC000060F9A81342F307144FF03C0913309F40A
:102BD0000150101624F4093018F008E001C001E09B
:102BE000AB0177FF02C040E050E0FB01E41BF50BB6
:102BF000A1E0B0E0AC0FBD1FEA0FFB1F8EE2A82ED4
:102C00004B01801A91080B2D10E0119501951109C7
:102C10004F3FBFEF5B0721F4D601AC9211966D01D7
:102C2000641775072CF08416950614F4818101C091
:102C300080E3415051093196D60111967D0140172C
:102C4000510724F0D6018C936701E2CF6417750712
:102C500039F4963320F4953319F4311101C081E32E
:102C6000F6018083F701822F90E2882319F0919377
:102C70008150FBCFF701E20FF11D108280E090E060
:102C80002996ECE00C947218283008F027E03327DE
:102C9000DA01990F311D87FD91600096610571057C
:102CA00039F432602E5F3D9330E32A95E1F70895C1
:102CB0009F3F30F080387105610509F03C5F3C5F53
:102CC0003D93913008F08068911DDF93CF931F935F
:102CD0000F93FF92EF92192F987F9695E92F969573
:102CE0009695E90FFF27EA5FFE4F99273327EE24D9
:102CF000FF24A701E70105900894079428F4360FF4
:102D0000E71EF81E491F511D660F771F881F991F68
:102D10000694A1F70590079428F4E70EF81E491FC2
:102D2000561FC11D770F881F991F661F0694A1F7B4
:102D30000590079428F4F80E491F561FC71FD11D90
:102D4000880F991F661F771F0694A1F705900794B7
:102D500020F4490F561FC71FD81F990F661F771FF2
:102D6000881F0694A9F784911095177041F0D695A5
:102D7000C79557954795F794E7941A95C1F7ECEAEC
:102D8000F0E06894159015913591659195910590B5
:102D90007FE27395E118F10A430B560BC90BD0097A
:102DA000C0F7E10CF11E431F561FC91FD01D7EF452
:102DB000703311F48A95E6CFE894015030F0080F93
:102DC0000AF40027021708F4202F2395022F7A33E4
:102DD00028F079E37D932A95E9F710C07D932A9531
:102DE00089F6069497956795379517951794E11886
:102DF000F10A430B560BC90BD00998F023957E912D
:102E000073957A3308F070E37C932013B8F77E91C2
:102E100070617D9330F0839571E37D9370E32A9523
:102E2000E1F71124EF90FF900F911F91CF91DF9167
:102E3000992787FD90950895DC01FC01672F71911A
:102E40007723E1F7329704C07C916D937083629190
:102E5000AE17BF07C8F308950E946E1708F481E00B
:102E60000895E89409C097FB3EF49095809570957D
:102E700061957F4F8F4F9F4F9923A9F0F92F96E9C6
:102E8000BB279395F695879577956795B795F1113B
:102E9000F8CFFAF4BB0F11F460FF1BC06F5F7F4FD8
:102EA0008F4F9F4F16C0882311F096E911C07723EA
:102EB00021F09EE8872F762F05C0662371F096E8F3
:102EC000862F70E060E02AF09A95660F771F881FC2
:102ED000DAF7880F9695879597F90895990F000866
:102EE000550FAA0BE0E8FEEF16161706E807F907DC
:102EF000C0F012161306E407F50798F0621B730B77
:102F0000840B950B39F40A2661F0232B242B252BF7
:102F100021F408950A2609F4A140A6958FEF811D9A
:102F2000811D08950E94A5170C9416180E94081878
:102F300038F00E940F1820F0952311F00C94FF1721
:102F40000C94051811240C944A180E94271870F349
:102F5000959FC1F3950F50E0551F629FF001729F3E
:102F6000BB27F00DB11D639FAA27F00DB11DAA1F4D
:102F7000649F6627B00DA11D661F829F2227B00D9A
:102F8000A11D621F739FB00DA11D621F839FA00D25
:102F9000611D221F749F3327A00D611D231F849F75
:102FA000600D211D822F762F6A2F11249F575040CC
:102FB0009AF0F1F088234AF0EE0FFF1FBB1F661F47
:102FC000771F881F91505040A9F79E3F510580F010
:102FD0000C94FF170C944A185F3FE4F3983ED4F327
:102FE000869577956795B795F795E7959F5FC1F7B4
:102FF000FE2B880F911D9695879597F9089597F95F
:103000009F6780E870E060E008959FEF80EC08958E
:1030100000240A94161617061806090608950024B7
:103020000A9412161306140605060895092E039431
:10303000000C11F4882352F0BB0F40F4BF2B11F4A5
:1030400060FF04C06F5F7F4F8F4F9F4F089557FD04
:103050009058440F551F59F05F3F71F04795880F06
:1030600097FB991F61F09F3F79F08795089512169D
:1030700013061406551FF2CF4695F1DF08C0161649
:1030800017061806991FF1CF8695710561050894FA
:103090000895E894BB2766277727CB0197F9089511
:1030A0002F923F924F925F926F927F928F929F9258
:1030B000AF92BF92CF92DF92EF92FF920F931F9346
:1030C000CF93DF93CDB7DEB7CA1BDB0B0FB6F894F7
:1030D000DEBF0FBECDBF09942A88398848885F8437
:1030E0006E847D848C849B84AA84B984C884DF80A8
:1030F000EE80FD800C811B81AA81B981CE0FD11D8C
:103100000FB6F894DEBF0FBECDBFED010895505845
:10311000BB27AA270E949F180C9416180E94081813
:1031200038F00E940F1820F039F49F3F19F426F46C
:103130000C9405180EF4E095E7FB0C94FF17E92FAB
:103140000E94271858F3BA17620773078407950778
:1031500020F079F4A6F50C9449180EF4E0950B2EA6
:10316000BA2FA02D0B01B90190010C01CA01A001D9
:103170001124FF27591B99F0593F50F4503E68F134
:103180001A16F040A22F232F342F4427585FF3CF75
:10319000469537952795A795F0405395C9F77EF446
:1031A0001F16BA0B620B730B840BBAF09150A1F08F
:1031B000FF0FBB1F661F771F881FC2F70EC0BA0F15
:1031C000621F731F841F48F4879577956795B7959D
:1031D000F7959E3F08F0B0CF9395880F08F0992798
:1031E000EE0F9795879508950E9408190C9416186C
:1031F0000E940F1858F00E94081840F029F45F3F11
:1032000029F00C94FF1751110C944A180C940518CE
:103210000E94271868F39923B1F3552391F3951B66
:10322000550BBB27AA2762177307840738F09F5FE7
:103230005F4F220F331F441FAA1FA9F335D00E2E54
:103240003AF0E0E832D091505040E695001CCAF7C1
:103250002BD0FE2F29D0660F771F881FBB1F261784
:1032600037074807AB07B0E809F0BB0B802DBF015B
:10327000FF2793585F4F3AF09E3F510578F00C942A
:10328000FF170C944A185F3FE4F3983ED4F38695F9
:1032900077956795B795F7959F5FC9F7880F911D4B
:1032A0009695879597F90895E1E0660F771F881F37
:1032B000BB1F621773078407BA0720F0621B730BEA
:1032C000840BBA0BEE1F88F7E09508950E946D19E4
:1032D0006894B1110C944A1808950E942F1888F030
:1032E0009F5798F0B92F9927B751B0F0E1F0660FCA
:1032F000771F881F991F1AF0BA95C9F714C0B1300B
:1033000091F00E944918B1E008950C944918672F74
:10331000782F8827B85F39F0B93FCCF38695779539
:103320006795B395D9F73EF4909580957095619522
:103330007F4F8F4F9F4F0895A1E21A2EAA1BBB1BF0
:10334000FD010DC0AA1FBB1FEE1FFF1FA217B30771
:10335000E407F50720F0A21BB30BE40BF50B661F87
:10336000771F881F991F1A9469F76095709580954B
:1033700090959B01AC01BD01CF010895EE0FFF1F99
:103380000590F491E02D09940F931F93CF93DF9351
:103390008230910510F482E090E0E091F004F09129
:1033A000F10420E030E0A0E0B0E0309719F1408176
:1033B00051810281138148175907C8F08417950776
:1033C00069F4109731F012960C93129713961C9390
:1033D00027C00093F0041093F10422C02115310599
:1033E00019F04217530718F49A01BD01EF01DF01EC
:1033F000F801DBCF21153105F9F0281B390B2430FA
:10340000310580F48A819B816115710521F0FB01F2
:103410009383828304C09093F1048093F004FE01AF
:10342000329644C0FE01E20FF31F81939193225024
:103430003109398328833AC02091EE043091EF049A
:10344000232B41F420915001309151013093EF042E
:103450002093EE0420914E0130914F01211531054A
:1034600041F42DB73EB74091520150915301241BB6
:10347000350BE091EE04F091EF04E217F307A0F4AE
:103480002E1B3F0B2817390778F0AC014E5F5F4FBA
:103490002417350748F04E0F5F1F5093EF044093F9
:1034A000EE048193919302C0E0E0F0E0CF01DF9160
:1034B000CF911F910F910895CF93DF93009709F457
:1034C00081C0FC01329713821282A091F004B09166
:1034D000F104109781F420813181820F931F209194
:1034E000EE043091EF042817390751F5F093EF04FB
:1034F000E093EE0467C0ED0120E030E0CE17DF0777
:1035000040F44A815B819E0141155105F1F0EA01C9
:10351000F5CFD383C28340815181840F951FC81793
:10352000D90759F488819981840F951F0296918358
:1035300080838A819B81938382832115310529F4BD
:10354000F093F104E093F0043DC0E901FB83EA83CA
:1035500049915991C40FD51FEC17FD0761F4808183
:103560009181840F951F0296E90199838883828156
:1035700093819B838A83E0E0F0E012968D919C9189
:103580001397009719F0FD01DC01F7CF8D919C9105
:1035900011979D012E5F3F4F820F931F2091EE04E4
:1035A0003091EF042817390769F4309729F4109205
:1035B000F1041092F00402C013821282B093EF045F
:1035C000A093EE04DF91CF910895A0E0B0E0EBEE80
:1035D000FAE10C945418EC01009721F4CB010E94FD
:1035E000C419B4C0FC01E60FF71F9C012250310939
:1035F000E217F30708F4A8C0D9010D911C911197A7
:1036000006171707B0F00530110508F49BC0C80174
:1036100004978617970708F495C002501109061BF6
:10362000170B019311936D937C93CF010E945C1A49
:1036300089C05B01A01AB10A4C01800E911EA091B5
:10364000F004B091F104612C712CE12CF12C109755
:1036500009F446C08D919C911197A815B905B1F553
:103660006C0142E0C40ED11CCA14DB0478F14C0199
:103670008A189B08640142E0C40ED11C1296BC90CB
:1036800012971396AC91B5E0CB16D10440F0B282FC
:10369000A38391828082D9016D937C9309C00E5FD0
:1036A0001F4F800F911FF90191838083EB2DFA2F1B
:1036B000E114F10431F0D7011396FC93EE931297C5
:1036C00041C0F093F104E093F0043CC06816790621
:1036D00008F43C017D0112960D90BC91A02DB7CF4E
:1036E0008091EE049091EF0488169906E1F4661635
:1036F0007706C8F480914E0190914F01009741F4F4
:103700008DB79EB74091520150915301841B950B88
:10371000E817F907C8F4F093EF04E093EE04F90119
:10372000718360830FC0CB010E94C4197C01009794
:1037300059F0A801BE010E94B01BCE010E945C1A84
:10374000C70104C0CE0102C080E090E0CDB7DEB773
:10375000EEE00C94701881E090E0F8940C94C01B9B
:10376000FB01DC0102C001900D9241505040D8F79E
:103770000895FB01DC0101900D920020E1F708950E
:1037800011E0C1E0D1E004C0FE010E94BE19219603
:0A379000C230D107C9F7F894FFCF4B
:10379A000000000B0B0000000B0B000000010000F2
:1037AA0080BF000080BF000080BF000080BF000013
:1037BA0080BF000080BF000080BF000080BF000003
:1037CA0080BF000080BF04050607000102033132F2
:1037DA00334134353642373839432A3023440000DE
:1037EA00F2048000000040001400540000000000B1
:1037FA00FA086C0896084709410EA508B90800009E
:10380A000000E40EB70E6F0F8B0EAF0E9B0E8C0EE0
:10381A00000000005B106C086F0F6E0F00000000C4
:10382A00C7086C086F0F6E0F000000002C01D3113F
:10383A00720F2A312E43616C6962726174696F6E0C
:10384A0000322E53656E736F72204D6F64650033BC
:10385A002E496E7075742052474200342E52657399
:10386A006574000D0A0043616C69627261746520B7
:10387A00666972737400576169742E2E2E0041674F
:10388A0061696E202D2050726573732053454C4533
:10389A004354004D656E7520202D20507265737358
:1038AA00004241434B002020522020202047202064
:1038BA00202042200020303030202030303020209C
:1038CA0030303020002D00416761696E2073656ECB
:1038DA00736F72002A004E6F7468696E67206861A0
:1038EA007070656E730052474220436F6C6F757239
:1038FA000053656E736F720043616C696272617422
:10390A00696E6700526564206261636B67726F75E6
:10391A006E6400477265656E206261636B67726FE1
:10392A00756E6400426C7565206261636B67726FC5
:10393A00756E6400426C61636B20666F722052651B
:10394A006400426C61636B20666F72204772656522
:10395A006E00426C61636B20666F7220426C756503
:02396A0000005B
:00000001FF
