:100000000C94AC000C94C9000C94C9000C94C90069
:100010000C94C9000C94C9000C94C9000C94C9003C
:100020000C94C9000C94C9000C94C9000C94C9002C
:100030000C94C9000C94C9000C94C9000C94C9001C
:100040000C94C9000C94C9000C94C9000C94C9000C
:100050000C94C9000C94C9000C94C9000C94C900FC
:100060000C94C9000C94C90015012F012F012F0118
:1000700013012F01310111012F012F012F012F0138
:100080002F012F012F012F012F012F012F012F01F0
:100090002F012F012F012F012F012F012F012F01E0
:1000A0002F012F012F012F012F012F012F012F01D0
:1000B0002F012F012F012F012F012F012F012F01C0
:1000C0002F012F012F012F012F012F012F012F01B0
:1000D0002F012F012F012F012F012F012F012F01A0
:1000E0002F012F012F012F011D012F012F012F01A2
:1000F0001B012F01190117012F012F012F012F01C2
:100100002F012F012F012F012F012F012F012F016F
:100110002F012F012F012F012F012F012F012F015F
:100120002F012F012F012F0125012F012F012F0159
:1001300023012F0121011F012F012F012F012F0169
:100140002F012F012F012F012D012F012F012F0131
:100150002B012F012901270111241FBECFEFD8E069
:10016000DEBFCDBF11E0A0E0B1E0E2ECF9E002C0FB
:1001700005900D92A23CB107D9F721E0A2ECB1E0C5
:1001800001C01D92A93CB207E1F70E94DE030C9466
:10019000DF040C9400008FE08BB989B18F708F3031
:1001A000D1F708958FE08BB989B18F708F30D1F37B
:1001B0008FEC97E00197F1F700C000008FE08BB95A
:1001C00089B18F708F3071F3089520E090EE243064
:1001D00058F48FE0890F8BB989B18F708F3021F47B
:1001E000990F905F2F5FF3CF907F890F089580EF75
:1001F0008AB908950E94CB008FE39CE90197F1F73B
:1002000000C000000E94D2000E94E50090E0FC01C6
:10021000E757F109E837F10510F5EC5CFF4F0C9456
:10022000C50487E3089589E3089581E4089584E38C
:10023000089585E3089586E3089582E4089581E3AF
:10024000089582E3089583E3089583E4089580E3A5
:10025000089586E4089585E4089584E408958AE77E
:10026000089588E3089584EA8093BC008091BC00DF
:100270008823E4F7089584E98093BC008AE18A9595
:10028000F1F700C008958093BB0084E88093BC0020
:100290008091BC008823E4F708951092B90086E4A9
:1002A0008093B80084E08093BC000895982F907FDD
:1002B00095B995B19E7F95B995B1946095B922E0B5
:1002C0002A95F1F700C095B19B7F95B99AE19A956F
:1002D000F1F700C020E1829FC001112485B985B1EA
:1002E0008E7F85B985B1846085B982E08A95F1F702
:1002F00000C085B18B7F85B98FEC97E00197F1F74E
:1003000000C000000895982F907F95B995B1916035
:1003100095B995B1946095B922E02A95F1F700C09E
:1003200095B19B7F95B99AE19A95F1F700C020E1CC
:10033000829FC001112485B985B1816085B985B1DD
:10034000846085B982E08A95F1F700C085B18B7F22
:1003500085B98FEC97E00197F1F700C00000089590
:100360002FE788E391E0215080409040E1F700C002
:10037000000085EF84B982E00E94560188E20E9465
:1003800056018EE00E94560181E00E94560180E8ED
:100390000E945601089581E00E94560180E80E9463
:1003A00056010895CF93DF93EC018881882321F0D3
:1003B00021960E948301F9CFDF91CF910895811199
:1003C00008C0603130F4862F8F7080680E9456011B
:1003D0001DC0813041F4603130F4862F8F70806C05
:1003E0000E94560113C0823041F4603130F4862FF0
:1003F0008F7080690E94560109C0833039F46031E2
:1004000028F4862F8F70806D0E9456018EE00E9426
:10041000560108958770ECE7F0E09081987F892B72
:100420008083EAE7F0E080818064808380917A00B5
:1004300086FDFCCF8091780090917900089580E44A
:1004400080937C0087E880937A000895CF93809111
:10045000C80160910E01861720F00E94A5049093B8
:10046000C80190910D018091C801981741F10E9437
:10047000CB01C0E0C43018F560E08C2F0E94DF0192
:100480008091C801C81311C020E1C29FC00111248E
:10049000815F9E4F0E94D2016EE08C2F0E94DF018F
:1004A0008FE691E00E94D20108C020E1C29FC00106
:1004B0001124815F9E4F0E94D201CF5FDBCFCF918D
:1004C00008950E94FA00813491F00E94FA0082346B
:1004D00081F00E94FA00833471F00E94FA008434A3
:1004E00061F00E94FA00853451F485E0089581E0BE
:1004F000089582E0089583E0089584E0089586E0F9
:100500000895CF93DF93D82F0E94CB0181E791E02C
:100510000E94D201C0E0C330B8F42D2F30E04091EA
:100520000E018C2F90E0840F911D2817390751F48C
:100530006C2F660F660F82E00E94DF018BE791E06F
:100540000E94D201CF5FE7CFDF91CF910895EF9264
:10055000FF920F931F93CF93DF930E94CB018FE7FE
:1005600091E00E94D2012FEF89E698E1215080406E
:100570009040E1F700C0000060E082E00E94DF01EF
:100580008EE891E00E94D2012FEF84E39CE021509D
:1005900080409040E1F700C000000E94CB018FE74F
:1005A00091E00E94D201E12CF12CD1E023E0E2168F
:1005B000F1040CF05FC00E94330180E40E9443010B
:1005C0008FE00E9443018D2F0E9443010E943B0156
:1005D0008FEF94E32CE0815090402040E1F700C081
:1005E0000000C0E000E010E0C23368F480E00E9448
:1005F0000A02080F191F8FE493EC0197F1F700C06E
:100600000000CF5FF1CF2FEF209FC001219F900D01
:100610001124F7013396EE0FFF1FE050FF4F40818A
:1006200051819701220F331FF901E050FF4F608184
:100630007181461B570BE2E3E49FB001E59F700D0B
:1006400011240E94B104F901EE53FE4F71836083BF
:100650000E94330180E40E9443018FE00E94430125
:1006600080E00E9443010E943B01DD0F9FEFE91AE9
:10067000F90A9CCFDF91CF911F910F91FF90EF90DE
:1006800008959F92AF92BF92CF92DF92EF92FF9226
:100690000F931F93CF93DF93CDB7DEB7A0970FB61D
:1006A000F894DEBF0FBECDBF80E2EFE4F1E0DE01E3
:1006B000119601900D928A95E1F7912C21E0291570
:1006C00008F46AC00E94CB01A92CB12CC501829507
:1006D0009295907F9827807F982721E030E02C0F1B
:1006E0003D1F820F931F0E94D201C12CD12C01E02B
:1006F00033E0C316D1040CF04DC00E94330180E4F6
:100700000E9443018FE00E944301802F0E94430119
:100710000E943B018FEF94E32CE0815090402040F9
:10072000E1F700C0000010E0E12CF12C123368F476
:1007300080E00E940A02E80EF91E8FE493EC019714
:10074000F1F700C000001F5FF1CF9501220F331FAA
:100750002A0D3B1D2C0D3D1DC70162E370E00E9478
:10076000B104220F331FF901E050FF4F7183608302
:100770000E94330180E40E9443018FE00E94430104
:1007800080E00E9443010E943B01000F9FEFC91AC5
:10079000D90AAECF939492CFA0960FB6F894DEBF4D
:1007A0000FBECDBFDF91CF911F910F91FF90EF90C2
:1007B000DF90CF90BF90AF909F9008950E94B001BE
:1007C0000E94F7000E941F020E944D010E94330107
:1007D00080E40E9443018FE00E94430180E00E9478
:1007E00043010E943B0163E081E00E94DF0180EA57
:1007F00091E00E94D20165E082E00E94DF018AEA76
:1008000091E00E94D2012FEF89E698E121508040CB
:100810009040E1F700C000000E94CB010E94260238
:100820000E9461028230C1F1853009F47DC08130BF
:10083000B9F72091C8012F5F2093C80180910E0164
:10084000281718F40E942602EBCF281788F0622F91
:1008500070E0482F50E04D5F5F4F6417750744F418
:1008600090910C01943121F0822F0E948102D8CF07
:1008700030E0482F50E04D5F5F4F241735074CF0B4
:1008800090910C01943129F08093C8010E9481025B
:10089000C7CF0E942602C4CF8091C801811110C029
:1008A0000E94CB010E9441032FEF89E698E121507D
:1008B00080409040E1F700C000000E942602B0CFC7
:1008C000813031F50E94CB018091000190910101AE
:1008D000019661F00E94A7028FE79AE126E081501D
:1008E00090402040E1F700C000000FC081EB91E094
:1008F0000E94D2018FEF94E32CE081509040204081
:10090000E1F700C000001092C8010E94260288CFC3
:10091000823009F085CF80930C0180910E01809385
:10092000C8010E9481027CCF9091C80180910E0184
:10093000891708F075CF80910C018093C80184E17C
:1009400080930C010E9426026BCF991B79E004C0B2
:10095000991F961708F0961B881F7A95C9F78095FE
:10096000089597FB072E16F4009407D077FD09D061
:100970000E94CB0407FC05D03EF4909581959F4FD3
:100980000895709561957F4F0895EE0FFF1F0590B4
:10099000F491E02D0994AA1BBB1B51E107C0AA1FCB
:1009A000BB1FA617B70710F0A61BB70B881F991F10
:1009B0005A95A9F780959095BC01CD010895F894BA
:0209C000FFCF67
:1009C200FFFFFFFFFFFFFFFFFFFFFFFF14FF0431E9
:1009D2002E43616C6962726174696F6E000000324D
:1009E2002E53656E736F72204D6F64650000003385
:1009F2002E496E7075742052474200000000003488
:100A02002E5265736574000000000000000000486B
:100A12006F6C64205768697465000000000000482C
:100A22006F6C6420426C61636B0000000000002A5E
:100A320000522020204720202042005F5F5F0048B4
:100A42006F6C642074686520436F6C6F720053652D
:100A52006E73696E67207374617274206E6F7700B3
:100A620052474220436F6C6F720053656E736F7210
:100A72000043616C696272617465204669727374C5
:020A8200000072
:00000001FF
