S00F00005247425F4156522E73726563F2
S11300000C94ED000C940A010C940A010C940A015E
S11300100C940A010C940A010C940A010C940A0130
S11300200C940A010C940A010C940A010C940A0120
S11300300C940A010C940A010C940A010C940A0110
S11300400C940A010C940A010C940A010C940A0100
S11300500C940A010C940A010C940A010C940A01F0
S11300600C940A010C940A0156017001700170018C
S1130070540170017201520170017001700170012C
S113008070017001700170017001700170017001E4
S113009070017001700170017001700170017001D4
S11300A070017001700170017001700170017001C4
S11300B070017001700170017001700170017001B4
S11300C070017001700170017001700170017001A4
S11300D07001700170017001700170017001700194
S11300E070017001700170015E0170017001700196
S11300F05C0170015A0158017001700170017001B6
S11301007001700170017001700170017001700163
S11301107001700170017001700170017001700153
S1130120700170017001700166017001700170014D
S1130130640170016201600170017001700170015D
S113014070017001700170016E0170017001700125
S11301506C0170016A01680107634236B79BD8A736
S11301601A39685618AEBAAB558C1D3CB7CC5763D8
S1130170BD6DEDFD753EF6177231BF000000803F86
S113018008000000BE922449123EABAAAA2ABECDA2
S1130190CCCC4C3E00000080BEABAAAAAA3E000014
S11301A00000BF000000803F00000000000841780C
S11301B0D3BB4387D1133D190E3CC3BD4282AD2B43
S11301C03E68EC8276BED98FE1A93E4C80EFFFBE3B
S11301D001C4FF7F3F000000000011241FBECFEFC9
S11301E0D8E0DEBFCDBF11E0A0E0B1E0E0EAF4E189
S11301F002C005900D92A03EB107D9F721E0A0EE10
S1130200B1E001C01D92AD3EB207E1F70E944B057B
S11302100C944E0A0C9400008FE08BB989B18F7056
S11302208F30D1F708958FE08BB989B18F708F30FB
S1130230D1F38FEC97E00197F1F700C000008FE055
S11302408BB989B18F708F3071F3089520E090EEEF
S1130250243058F48FE0890F8BB989B18F708F30B7
S113026021F4990F905F2F5FF3CF907F890F08954A
S113027080EF8AB908950E940C018FE39CE90197ED
S1130280F1F700C000000E9413010E94260190E0D3
S1130290FC01E757F109E837F10510F5EC5CFF4F75
S11302A00C94FF0987E0089589E0089581E4089596
S11302B084E0089585E0089586E0089582E4089531
S11302C081E0089582E0089583E0089583E4089529
S11302D080E0089586E4089585E4089584E408950B
S11302E088E4089588E0089584EA8093BC008091AE
S11302F0BC008823E4F7089584E98093BC008AE174
S11303008A95F1F700C008958093BB0084E8809338
S1130310BC008091BC008823E4F708951092B900D2
S113032086E48093B80084E08093BC000895982FFD
S1130330907F95B998B19D7F98B998B1946098B918
S113034022E02A95F1F700C098B19B7F98B99AE111
S11303509A95F1F700C020E1829FC001112485B96C
S113036088B18D7F88B988B1846088B982E08A9524
S1130370F1F700C088B18B7F88B98FEC97E00197C3
S1130380F1F700C000000895982F907F95B998B1B7
S1130390926098B998B1946098B922E02A95F1F7DF
S11303A000C098B19B7F98B99AE19A95F1F700C083
S11303B020E1829FC001112485B988B1826088B987
S11303C088B1846088B982E08A95F1F700C088B169
S11303D08B7F88B98FEC97E00197F1F700C000009C
S11303E008952FE788E391E0215080409040E1F7A1
S11303F000C0000080EF84B986E087B982E00E94E3
S1130400970188E20E9497018EE00E94970181E0A3
S11304100E94970180E80E949701089581E00E945C
S1130420970180E80E9497010895CF93DF93EC0130
S11304308881882321F021960E94C401F9CFDF919D
S1130440CF910895811108C0603130F4862F8F70E8
S113045080680E9497011DC0813041F4603130F4FE
S1130460862F8F70806C0E94970113C0823041F4F4
S1130470603130F4862F8F7080690E94970109C023
S1130480833039F4603128F4862F8F70806D0E9498
S113049097018EE00E94970108958770ECE7F0E0E1
S11304A09081987F892B8083EAE7F0E080818064E3
S11304B0808380917A0086FDFCCF809178009091B2
S11304C07900089580E480937C0087E880937A0023
S11304D00895CF938091EC0160910E01861720F06E
S11304E00E94DF099093EC0190910D018091EC0141
S11304F0981741F10E940E02C0E0C43018F560E084
S11305008C2F0E9422028091EC01C81311C020E1BB
S1130510C29FC0011124815F9E4F0E9415026EE0AC
S11305208C2F0E9422028DED91E00E94150208C0DA
S113053020E1C29FC0011124815F9E4F0E941502D9
S1130540CF5FDBCFCF9108950E943B01813491F0BE
S11305500E943B01823481F00E943B01833471F09C
S11305600E943B01843461F00E943B01853451F4C4
S113057085E0089581E0089582E0089583E0089578
S113058084E0089586E00895DF92EF92FF920F933E
S11305901F93CF93DF93CDB7DEB727970FB6F894A9
S11305A0DEBF0FBECDBFD82E0E940E028FE691E0B3
S11305B00E94150210E0133068F5012F000F000FA0
S11305C0602F81E00E942202E12EF12CF701EE0F50
S11305D0FF1FE052FE4F4AE0BE016F5F7F4F8081F4
S11305E091810E94190ACE0101960E9415028D2D57
S11305F090E020910E01E20EF11C8E159F0541F44E
S1130600602F82E00E94220289E791E00E94150295
S11306101F5FD1CF27960FB6F894DEBF0FBECDBFB4
S1130620DF91CF911F910F91FF90EF90DF9008958C
S11306308F929F92AF92BF92DF92EF92FF920F93AD
S11306401F93CF93DF93D82E0E94C402ED2CF12C7C
S113065024E0E21AF108F701EE0FFF1FE052FE4F0B
S11306601182108200E010E0D3E001C0D0E0DD236D
S113067009F4CEC00E943B01C82F8FEB8C0F41E0E0
S1130680823008F440E031E0C33409F430E021E082
S1130690C43409F420E091E0C53409F490E081E029
S11306A0C63409F480E051E0C83409F450E034233E
S11306B023239223892309F49FC0552309F49CC062
S11306C0D330B1F5CC23A1F16D2F70E061507109E5
S11306D0072E000C880B990B0E94EF069B01AC01BE
S11306E060E070E080E291E40E94E8074B015C0165
S11306F06C2F70E080E090E00E94EF06A501940169
S11307000E947B074B015C01B801110F880B990B08
S11307100E94EF06A50194010E944B0620E030E000
S113072040E85FE30E944B060E94B7068B0135C088
S11307308FEF8D0F823020F0D33079F5C1112DC0A9
S11307406D2F70E061507109072E000C880B990B16
S11307500E94EF069B01AC0160E070E080E291E44E
S11307600E94E8074B015C016C2F70E080E090E090
S11307700E94EF06A50194010E947B074B015C01D6
S1130780B801110F880B990B0E94EF06A501940183
S11307900E944B060E94B7068B010F3F110509F01A
S11307A04CF4F701EE0FFF1FE052FE4F118300835C
S11307B0D1501EC0F701EE0FFF1FE052FE4F008123
S11307C011810E940E028DE791E00E94150260E003
S11307D081E00E9422028CE891E00E9415028FEFD2
S11307E094E32CE0815090402040E1F700C00000E9
S11307F08D2D0E94C4023BCFC13409F437CFC534D8
S113080009F035CF82E08093EC010E9469022FCF7A
S1130810DF91CF911F910F91FF90EF90DF90BF90E8
S1130820AF909F908F900895EF92FF920F931F9334
S1130830CF93DF930E940E028AE991E00E94150291
S11308402FEF89E698E1215080409040E1F700C005
S1130850000060E082E00E94220289EA91E00E94A6
S113086015022FEF84E39CE0215080409040E1F793
S113087000C000000E940E028AE991E00E94150265
S1130880E12CF12CD1E023E0E216F1040CF05FC07E
S11308900E94740180E40E9484018FE00E9484011C
S11308A08D2F0E9484010E947C018FEF94E32CE041
S11308B0815090402040E1F700C00000C0E000E01B
S11308C010E0C23368F480E00E944D02080F191F43
S11308D08FE493EC0197F1F700C00000CF5FF1CFF4
S11308E02FEF209FC001219F900D1124F701339613
S11308F0EE0FFF1FE050FF4F408151819701220FFF
S1130900331FF901E050FF4F60817181461B570B83
S1130910E2E3E49FB001E59F700D11240E94EB090E
S1130920F901EA51FE4F718360830E94740180E4EF
S11309300E9484018FE00E94840180E00E9484016F
S11309400E947C01DD0F9FEFE91AF90A9CCFDF9129
S1130950CF911F910F91FF90EF9008959F92AF92C6
S1130960BF92CF92DF92EF92FF920F931F93CF9398
S1130970DF93CDB7DEB7A0970FB6F894DEBF0FBEF6
S1130980CDBF80E2EFE4F1E0DE01119601900D921B
S11309908A95E1F7912C21E0291508F46AC00E9498
S11309A00E02A92CB12CC50182959295907F9827AF
S11309B0807F982721E030E02C0F3D1F820F931F8A
S11309C00E941502C12CD12C01E033E0C316D104DE
S11309D00CF04DC00E94740180E40E9484018FE0F9
S11309E00E948401802F0E9484010E947C018FEF69
S11309F094E32CE0815090402040E1F700C00000D7
S1130A0010E0E12CF12C123368F480E00E944D02D6
S1130A10E80EF91E8FE493EC0197F1F700C0000093
S1130A201F5FF1CF9501220F331F2A0D3B1D2C0DA3
S1130A303D1DC70162E370E00E94EB09220F331FE2
S1130A40F901E050FF4F718360830E94740180E4D8
S1130A500E9484018FE00E94840180E00E9484014E
S1130A600E947C01000F9FEFC91AD90AAECF93945C
S1130A7092CFA0960FB6F894DEBF0FBECDBFDF9124
S1130A80CF911F910F91FF90EF90DF90CF90BF9087
S1130A90AF909F900895CF93DF93CDB7DEB727979C
S1130AA00FB6F894DEBF0FBECDBF0E94F1010E94C5
S1130AB038010E94620280E00E944D024AE0BE01B9
S1130AC06F5F7F4F0E94190ACE0101960E941502A2
S1130AD02FEF89E698E1215080409040E1F700C073
S1130AE000000E948E010E94740180E40E9484012F
S1130AF08FE00E94840180E00E9484010E947C01B6
S1130B0063E081E00E9422028BEB91E00E941502D7
S1130B1065E082E00E94220285EC91E00E941502C9
S1130B202FEF89E698E1215080409040E1F700C022
S1130B3000000E940E020E9469020E94A4028230F8
S1130B40C1F1853009F495C08130B9F72091EC01E9
S1130B502F5F2093EC0180910E01281718F40E9456
S1130B606902EBCF281788F0622F70E0482F50E01D
S1130B704D5F5F4F6417750744F490910C019431F5
S1130B8021F0822F0E94C402D8CF30E0482F50E0D9
S1130B904D5F5F4F241735074CF090910C01943151
S1130BA029F08093EC010E94C402C7CF0E9469021D
S1130BB0C4CF8091EC01811110C00E940E020E94EA
S1130BC0AE042FEF89E698E1215080409040E1F790
S1130BD000C000000E946902B0CF813031F50E944C
S1130BE00E028091000190910101019661F00E9432
S1130BF014048FE79AE126E0815090402040E1F709
S1130C0000C000000FC08CEC91E00E9415028FEF31
S1130C1094E32CE0815090402040E1F700C00000B4
S1130C201092EC010E94690288CF823049F48093CB
S1130C300C0180910E018093EC010E94C4027DCFCF
S1130C40843008F47ACF6AE083E00E9422028CEDBB
S1130C5091E00E9415028FE79AE126E081509040CE
S1130C602040E1F700C000008091EC010E941803CD
S1130C7064CF9091EC0180910E01981708F45DCF38
S1130C8080910C018093EC0184E180930C010E941B
S1130C90690253CF5058BB27AA270E9462060C94BE
S1130CA041070E94330738F00E943A0720F039F4D4
S1130CB09F3F19F426F40C9430070EF4E095E7FBFB
S1130CC00C942A07E92F0E94520758F3BA176207B7
S1130CD073078407950720F079F4A6F50C9474073C
S1130CE00EF4E0950B2EBA2FA02D0B01B901900143
S1130CF00C01CA01A0011124FF27591B99F0593F87
S1130D0050F4503E68F11A16F040A22F232F342FCE
S1130D104427585FF3CF469537952795A795F0401C
S1130D205395C9F77EF41F16BA0B620B730B840B31
S1130D30BAF09150A1F0FF0FBB1F661F771F881FE9
S1130D40C2F70EC0BA0F621F731F841F48F4879541
S1130D5077956795B795F7959E3F08F0B0CF939533
S1130D60880F08F09927EE0F9795879508950E94AC
S1130D70BE066894B1110C94750708950E945A0731
S1130D8088F09F5798F0B92F9927B751B0F0E1F048
S1130D90660F771F881F991F1AF0BA95C9F714C0F8
S1130DA0B13091F00E947407B1E008950C94740777
S1130DB0672F782F8827B85F39F0B93FCCF3869531
S1130DC077956795B395D9F73EF49095809570958E
S1130DD061957F4F8F4F9F4F0895E89409C097FB0B
S1130DE03EF490958095709561957F4F8F4F9F4FFE
S1130DF09923A9F0F92F96E9BB279395F695879542
S1130E0077956795B795F111F8CFFAF4BB0F11F404
S1130E1060FF1BC06F5F7F4F8F4F9F4F16C08823AB
S1130E2011F096E911C0772321F09EE8872F762FE1
S1130E3005C0662371F096E8862F70E060E02AF022
S1130E409A95660F771F881FDAF7880F969587950E
S1130E5097F9089597F99F6780E870E060E0089536
S1130E609FEF80EC089500240A94161617061806BE
S1130E700906089500240A9412161306140605069A
S1130E800895092E0394000C11F4882352F0BB0F2B
S1130E9040F4BF2B11F460FF04C06F5F7F4F8F4F8E
S1130EA09F4F089557FD9058440F551F59F05F3FC9
S1130EB071F04795880F97FB991F61F09F3F79F078
S1130EC087950895121613061406551FF2CF4695FA
S1130ED0F1DF08C0161617061806991FF1CF86957C
S1130EE07105610508940895E894BB276627772760
S1130EF0CB0197F908950E948E070C9441070E9434
S1130F00330738F00E943A0720F0952311F00C942F
S1130F102A070C94300711240C9475070E94520779
S1130F2070F3959FC1F3950F50E0551F629FF00138
S1130F30729FBB27F00DB11D639FAA27F00DB11D51
S1130F40AA1F649F6627B00DA11D661F829F2227DA
S1130F50B00DA11D621F739FB00DA11D621F839F61
S1130F60A00D611D221F749F3327A00D611D231F37
S1130F70849F600D211D822F762F6A2F11249F5785
S1130F8050409AF0F1F088234AF0EE0FFF1FBB1F88
S1130F90661F771F881F91505040A9F79E3F510547
S1130FA080F00C942A070C9475075F3FE4F3983E95
S1130FB0D4F3869577956795B795F795E7959F5FF1
S1130FC0C1F7FE2B880F911D9695879597F9089583
S1130FD0FA01EE0FFF1F309621053105A1F16115CD
S1130FE0710561F48038BFE39B0749F16894903838
S1130FF0810561F08038BFEF9B0741F099234AF5E2
S1131000FF3FE1053105210519F1E8940894E795BE
S1131010D901AA2329F4AB2FBE2FF85FD0F310C057
S1131020FF5F70F4A695E0F7F73950F019F0FF3A36
S113103038F49F779F930DD00F9007FC9058089534
S113104046F00C94300760E070E080E89FE3089578
S11310504FE79F775F934F933F932F930E94E3084B
S11310602F913F914F915F910E947B070C94400810
S113107029F416F00C942A070C9474070C94300786
S11310800E945A07A8F39638A0F707F80F92E8943D
S11310902BE33AEA48EB5FE70E9491070F920F9225
S11310A00F924DB75EB70F920E942B09E8E5F1E06D
S11310B00E9472084F915F91EF91FF91E595EE1FA9
S11310C0FF1F49F0FE57E0684427EE0F441FFA95CE
S11310D0E1F74195550B0E94A5080F9007FE0C946B
S11310E099080895DF93CF931F930F93FF92EF9284
S11310F0DF927B018C01689406C0DA2EEF010E9416
S11311008E07FE01E894A59125913591459155915D
S1131110A6F3EF010E946206FE019701A801DA948A
S113112069F7DF90EF90FF900F911F91CF91DF91BE
S113113008959B01AC0160E070E080E89FE30C94AB
S11311405F090C942A070C94D1090E945A07D8F31A
S11311509923C9F3940F511DA3F39150504094F077
S113116059F0882332F0660F771F881F9150504042
S1131170C1F79E3F51052CF7880F911D96958795D1
S113118097F908955F3FACF0983E9CF0BB27869595
S113119077956795B79508F4B1609395C1F7BB0F40
S11311A058F711F460FFE8CF6F5F7F4F8F4F9F4F69
S11311B0E3CF0C94750716F00C94D1090C94300706
S11311C068940C942A070E945A07A8F39923C1F340
S11311D0AEF3DF93CF931F930F93FF92C92FDD27B5
S11311E088232AF02197660F771F881FDAF720E0FB
S11311F030E040E85FEB9FE3883920F0803E38F030
S113120021968F770E944B06E0E8F1E004C00E942B
S11312104B06EDEAF1E00E9472088B01BE01EC017D
S1131220FB2E6F5771097595771F880B990B0E94D8
S1131230EF0628E132E741E35FE30E948E07AF2D1A
S11312409801AE01FF900F911F91CF91DF910E9401
S113125062060C944107FA01DC01AA0FBB1F9B0133
S1131260AC01BF5728F4222733274427507820C0E5
S1131270B75190F4AB2F0024469537952795011C60
S1131280A395D2F3002071F0220F331F441FB395AE
S1131290DAF30ED00C944A0661307105A0E88A078F
S11312A0B94630F49B01AC016627772788279078EC
S11312B0309621F0208331834283538308950E9422
S11312C073090C9441070E943A0758F00E943307AF
S11312D040F029F45F3F29F00C942A0751110C9433
S11312E075070C9430070E94520768F39923B1F3F1
S11312F0552391F3951B550BBB27AA276217730738
S1131300840738F09F5F5F4F220F331F441FAA1FCB
S1131310A9F335D00E2E3AF0E0E832D09150504087
S1131320E695001CCAF72BD0FE2F29D0660F771F35
S1131330881FBB1F261737074807AB07B0E809F01B
S1131340BB0B802DBF01FF2793585F4F3AF09E3FA0
S1131350510578F00C942A070C9475075F3FE4F369
S1131360983ED4F3869577956795B795F7959F5FE3
S1131370C9F7880F911D9695879597F90895E1E02F
S1131380660F771F881FBB1F621773078407BA078E
S113139020F0621B730B840BBA0BEE1F88F7E095E9
S11313A008959F3F31F0915020F487957795679584
S11313B0B795880F911D9695879597F90895991B70
S11313C079E004C0991F961708F0961B881F7A9538
S11313D0C9F78095089597FB072E16F4009407D05B
S11313E077FD09D00E94050A07FC05D03EF49095CC
S11313F081959F4F0895709561957F4F0895EE0FE5
S1131400FF1F0590F491E02D0994AA1BBB1B51E129
S113141007C0AA1FBB1FA617B70710F0A61BB70B60
S1131420881F991F5A95A9F780959095BC01CD0105
S11314300895BB274A3031F4992322F4BDE29095F4
S113144081959F4F0C94250ABB27FB015527AA279A
S1131450880F991FAA1FA41710F0A41B839550513D
S1131460B9F7A05DAA3308F0A95DA193009779F7B5
S1131470B111B1931192CB010C943E0ADC01FC0131
S1131480672F71917723E1F7329704C07C916D93B4
S113149070836291AE17BF07C8F30895F894FFCF25
S11314A0FFFFFFFFFFFFFFFFFFFFFFFF14FF0431FC
S11314B02E43616C6962726174696F6E0000003260
S11314C02E53656E736F72204D6F64650000003398
S11314D02E496E707574205247420000000000349B
S11314E02E5265736574000000000000000000487F
S11314F06F6C642057686974650000000000004840
S11315006F6C6420426C61636B0000000000005249
S11315102020204720202042005F5F5F00496E6347
S11315206C7564652056616C756573004C657373E6
S1131530207468616E2032353500486F6C64207405
S1131540686520436F6C6F720053656E73696E67D4
S1131550207374617274206E6F7700524742204387
S11315606F6C6F720053656E736F720043616C69C8
S11315706272617465204669727374002A2A0000DD
S9030000FC
