:100000000C94AC000C94C9000C94C9000C94C90069
:100010000C94C9000C94C9000C94C9000C94C9003C
:100020000C94C9000C94C9000C94C9000C94C9002C
:100030000C94C9000C94C9000C94C9000C94C9001C
:100040000C94C9000C94C9000C94C9000C94C9000C
:100050000C94C9000C94C9000C94C9000C94C900FC
:100060000C94C9000C94C90015012F012F012F0118
:1000700013012F01310111012F012F012F012F0138
:100080002F012F012F012F012F012F012F012F01F0
:100090002F012F012F012F012F012F012F012F01E0
:1000A0002F012F012F012F012F012F012F012F01D0
:1000B0002F012F012F012F012F012F012F012F01C0
:1000C0002F012F012F012F012F012F012F012F01B0
:1000D0002F012F012F012F012F012F012F012F01A0
:1000E0002F012F012F012F011D012F012F012F01A2
:1000F0001B012F01190117012F012F012F012F01C2
:100100002F012F012F012F012F012F012F012F016F
:100110002F012F012F012F012F012F012F012F015F
:100120002F012F012F012F0125012F012F012F0159
:1001300023012F0121011F012F012F012F012F0169
:100140002F012F012F012F012D012F012F012F0131
:100150002B012F012901270111241FBECFEFD8E069
:10016000DEBFCDBF11E0A0E0B1E0E4EDF7E002C0FA
:1001700005900D92A239B107D9F721E0A2E9B1E0CB
:1001800001C01D92A339B207E1F70E9423030C942A
:10019000E8030C9400008FE08BB989B18F708F3029
:1001A000D1F708958FE08BB989B18F708F30D1F37B
:1001B0008FEC97E00197F1F700C000008FE08BB95A
:1001C00089B18F708F3071F3089520E090EE243064
:1001D00058F48FE0890F8BB989B18F708F3021F47B
:1001E000990F905F2F5FF3CF907F890F089580EF75
:1001F0008AB908950E94CB008FE39CE90197F1F73B
:1002000000C000000E94D2000E94E50090E0FC01C6
:10021000E757F109E837F10510F5EC5CFF4F0C9456
:10022000E20387E3089589E3089581E4089584E370
:10023000089585E3089586E3089582E4089581E3AF
:10024000089582E3089583E3089583E4089580E3A5
:10025000089586E4089585E4089584E408958AE77E
:10026000089588E3089584EA8093BC008091BC00DF
:100270008823E4F7089584E98093BC008AE18A9595
:10028000F1F700C008958093BB0084E88093BC0020
:100290008091BC008823E4F708951092B90086E4A9
:1002A0008093B80084E08093BC000895982F907FDD
:1002B00095B995B19E7F95B995B1946095B922E0B5
:1002C0002A95F1F700C095B19B7F95B99AE19A956F
:1002D000F1F700C020E1829FC001112485B985B1EA
:1002E0008E7F85B985B1846085B982E08A95F1F702
:1002F00000C085B18B7F85B98FEC97E00197F1F74E
:1003000000C000000895982F907F95B995B1916035
:1003100095B995B1946095B922E02A95F1F700C09E
:1003200095B19B7F95B99AE19A95F1F700C020E1CC
:10033000829FC001112485B985B1816085B985B1DD
:10034000846085B982E08A95F1F700C085B18B7F22
:1003500085B98FEC97E00197F1F700C00000089590
:100360002FE788E391E0215080409040E1F700C002
:10037000000085EF84B982E00E94560188E20E9465
:1003800056018EE00E94560181E00E94560180E8ED
:100390000E945601089581E00E94560180E80E9463
:1003A00056010895CF93DF93EC018881882321F0D3
:1003B00021960E948301F9CFDF91CF910895811199
:1003C00008C0603130F4862F8F7080680E9456011B
:1003D0001DC0813041F4603130F4862F8F70806C05
:1003E0000E94560113C0823041F4603130F4862FF0
:1003F0008F7080690E94560109C0833039F46031E2
:1004000028F4862F8F70806D0E9456018EE00E9426
:1004100056010895CF938091920160910201861751
:1004200020F00E94D6039093920190910101809157
:100430009201981741F10E94CB01C0E0C43018F539
:1004400060E08C2F0E94DF0180919201C81311C0DF
:1004500020E1C29FC00111248D5F9E4F0E94D201F6
:100460006EE08C2F0E94DF0183E691E00E94D201B2
:1004700008C020E1C29FC00111248D5F9E4F0E94E1
:10048000D201CF5FDBCFCF9108950E94FA00813473
:1004900091F00E94FA00823481F00E94FA008334C5
:1004A00071F00E94FA00843461F00E94FA008534F1
:1004B00051F485E0089581E0089582E0089583E095
:1004C000089584E0089586E00895CF93DF93D82FB0
:1004D0000E94CB0185E691E00E94D201C0E0C330CA
:1004E000B8F42D2F30E0409102018C2F90E0840F62
:1004F000911D2817390751F46C2F660F660F82E0A3
:100500000E94DF018FE691E00E94D201CF5FE7CF2A
:10051000DF91CF9108951F93CF93DF93C0E0D0E098
:1005200011E0C330D10534F50E94330180E40E940C
:1005300043018FE00E944301812F0E9443010E94EA
:100540003B012FEF8DE399E4215080409040E1F78B
:1005500000C000000E94330180E40E9443018FE04C
:100560000E94430180E00E9443010E943B01110F61
:100570002196D7CFDF91CF911F910895EF92FF92EF
:100580000F931F93CF93DF93CDB7DEB7A0970FB62E
:10059000F894DEBF0FBECDBF80E2E3E4F1E0DE0100
:1005A000119601900D928A95E1F7E12C21E02E152C
:1005B000E8F10E94CB0181E090E08C0F9D1F20E1CB
:1005C000E29E800D911D11240E94D20100E010E0F6
:1005D000FF24F394033011053CF50E94330180E4BD
:1005E0000E9443018FE00E9443018F2D0E9443012E
:1005F0000E943B018FEF9DE329E481509040204011
:10060000E1F700C000000E94330180E40E94430132
:100610008FE00E94430180E00E9443010E943B0161
:10062000FF0C0F5F1F4FD6CFE394C0CFA0960FB63D
:10063000F894DEBF0FBECDBFDF91CF911F910F9118
:10064000FF90EF9008950E94B0010E94F7000E9471
:100650004D010E94330180E40E9443018FE00E941B
:10066000430180E00E9443010E943B0163E081E07E
:100670000E94DF0183E791E00E94D20165E082E001
:100680000E94DF018DE791E00E94D2012FEF89E601
:1006900098E1215080409040E1F700C000000E94A6
:1006A000CB010E940A020E9445028230C1F18530CE
:1006B00009F46BC08130B9F7209192012F5F20932C
:1006C000920180910201281718F40E940A02EBCFD0
:1006D000281788F0622F70E0482F50E04D5F5F4F81
:1006E0006417750744F490910001943121F0822F32
:1006F0000E946502D8CF30E0482F50E04D5F5F4F39
:10070000241735074CF090910001943129F0809323
:1007100092010E946502C7CF0E940A02C4CF809155
:100720009201811110C00E94CB010E94BE022FEFE6
:1007300089E698E1215080409040E1F700C0000038
:100740000E940A02B0CF8130A1F40E94CB0184E85C
:1007500091E00E94D2010E948B022FEF89E698E17E
:10076000215080409040E1F700C000000E940A0242
:100770009ACF823009F097CF8093000180910201D7
:10078000809392010E9465028ECF90919201809198
:100790000201891708F087CF8091000180939201B0
:1007A00084E1809300010E940A027DCF991B79E0C9
:1007B00004C0991F961708F0961B881F7A95C9F7F1
:1007C00080950895EE0FFF1F0590F491E02D099498
:0407D000F894FFCFCB
:1007D40014FF04312E43616C6962726174696F6E37
:1007E400000000322E53656E736F72204D6F646586
:1007F400000000332E496E70757420524742000089
:10080400000000342E52657365740000000000007F
:10081400000000486F6C642057686974650000002C
:10082400000000486F6C6420426C61636B00000040
:100834000000002A00522020204720202042005F90
:100844005F5F0052474220436F6C6F720053656EC6
:10085400736F720073656E73696E6720636F64658E
:02086400000092
:00000001FF
