:100000000C9475000C9492000C9492000C94920045
:100010000C9492000C9492000C9492000C94920018
:100020000C9492000C9418020C9492000C94920080
:100030000C9492000C9428020C9492000C94920060
:100040000C9492000C9492000C9492000C949200E8
:100050000C9492000C9492000C9492000C949200D8
:100060000C9492000C94920007634236B79BD8A779
:100070001A39685618AEBAAB558C1D3CB7CC5763CD
:10008000BD6DEDFD753EF6177231BF000000803F7B
:1000900008000000BE922449123EABAAAA2ABECD97
:1000A000CCCC4C3E00000080BEABAAAAAA3E000009
:1000B0000000BF000000803F000000000008417801
:1000C000D3BB4387D1133D190E3CC3BD4282AD2B38
:1000D0003E68EC8276BED98FE1A93E4C80EFFFBE30
:1000E00001C4FF7F3F000000000011241FBECFEFBE
:1000F000D8E0DEBFCDBF12E0A0E0B1E0E0E4F8E17F
:1001000002C005900D92A232B107D9F722E0A2E217
:10011000B2E001C01D92A133B207E1F70E941307BC
:100120000C941E0C0C94000080EF8AB98FEF8BB9F1
:100130008BB18F708BB900002FEF89EF90E02150C9
:1001400080409040E1F700C0000089B18F7080933B
:1001500030028F3069F32FEF80E792E0215080402A
:100160009040E1F700C000008FEE8BB9000089B12C
:100170008F70809330028F3019F010922F0227C0B9
:100180008FED8BB9000089B18F70809330028F3072
:1001900021F081E080932F021AC08FEB8BB9000011
:1001A00089B18F70809330028F3021F082E080938C
:1001B0002F020DC08FE78BB9000089B18F7080933B
:1001C00030028F3009F4B0CF83E080932F0280910A
:1001D00030028E3059F4E0912F02F0E0EE0FFF1F55
:1001E000EE0FFF1FE55AFE4F808108958D3059F4C0
:1001F000E0912F02F0E0EE0FFF1FEE0FFF1FE55A18
:10020000FE4F818108958B3059F4E0912F02F0E088
:10021000EE0FFF1FEE0FFF1FE55AFE4F828108957C
:10022000873059F4E0912F02F0E0EE0FFF1FEE0F40
:10023000FF1FE55AFE4F838108950895982F907F00
:1002400095B998B19D7F98B998B1946098B922E01A
:100250002A95F1F700C098B19B7F98B99AE19A95D9
:10026000F1F700C020E1829FC001112485B988B157
:100270008D7F88B988B1846088B982E08A95F1F76A
:1002800000C088B18B7F88B98FEC97E00197F1F7B8
:1002900000C000000895982F907F95B998B19260A2
:1002A00098B998B1946098B922E02A95F1F700C006
:1002B00098B19B7F98B99AE19A95F1F700C020E137
:1002C000829FC001112485B988B1826088B988B144
:1002D000846088B982E08A95F1F700C088B18B7F8D
:1002E00088B98FEC97E00197F1F700C000000895FE
:1002F0002FE788E391E0215080409040E1F700C073
:10030000000080EF84B986E087B982E00E941E0178
:1003100088E20E941E018CE00E941E0181E00E9482
:100320001E0180E80E941E01089581E00E941E01C6
:1003300080E80E941E010895CF93DF93EC0103C073
:1003400021960E944B0188818111FACFDF91CF91D4
:100350000895811108C0643130F4862F8F70806851
:100360000E941E011DC0813041F4643130F4862F9B
:100370008F70806C0E941E0113C0823041F4643182
:1003800030F4862F8F708C560E941E0109C0833076
:1003900039F4643128F4862F8F708C520E941E012C
:1003A0008CE00E941E0108958770ECE7F0E09081D8
:1003B000987F892B8083EAE7F0E0808180648083E6
:1003C00080917A0086FDFCCF809178009091790031
:1003D000089580E480937C0087E880937A000895F4
:1003E00084B18E6084B983E88093B00081E080930B
:1003F0007000E0E0F1E094819093B300789497E08E
:100400009093B10099EA9093800080936F0080816F
:100410009181909389008093880082819381909349
:100420008B0080938A00789485E080938100089502
:100430001F920F920FB60F9211248F938091040197
:100440008093B3008F910F900FBE0F901F9018955F
:100450001F920F920FB60F9211248F939F93EF93D9
:10046000FF93E0E0F1E08281938190938B00809391
:100470008A00808191819093890080938800FF9108
:10048000EF919F918F910F900FBE0F901F90189535
:10049000A6E0B1E08D919C911197E0E0F1E09183AD
:1004A000808312968D919C911397938382831496E7
:1004B0008D919C911597958384830E94F0010895F6
:1004C000A8E2B2E08D919C911197E0E0F1E0918378
:1004D000808312968D919C911397938382831496B7
:1004E0008D919C911597958384830E94F0010895C6
:1004F000E0E0F1E0118210821382128215821482F0
:100500000E94F0010895CF9380912E0260911A010C
:10051000861720F00E94B50B90932E02909119013E
:1005200080912E02981741F10E949501C0E022C0EF
:1005300060E08C2F0E94A90180912E02C81311C087
:1005400020E1C29FC0011124855E9E4F0E949C0144
:100550006EE08C2F0E94A90187EB91E00E949C0124
:1005600008C020E1C29FC0011124855E9E4F0E94F9
:100570009C01CF5FC430E0F2CF9108950E949400B7
:10058000813491F00E949400823481F00E949400A2
:10059000833471F00E949400843461F00E949400CE
:1005A000853451F485E0089581E0089582E008954E
:1005B00083E0089584E0089586E00895DF92EF9245
:1005C000FF920F931F93CF93DF93CDB7DEB727979B
:1005D0000FB6F894DEBF0FBECDBFD82E0E94950196
:1005E0008BE891E00E949C0110E02CC0012F000FCD
:1005F000000F602F81E00E94A901E12EF12CF7018C
:10060000EE0FFF1FE85DFD4F4AE0BE016F5F7F4FB9
:10061000808191810E94E90BCE0101960E949C018C
:100620008D2D90E020911A01E20EF11C8E159F0590
:1006300041F4602F82E00E94A90185E991E00E94C7
:100640009C011F5F133090F227960FB6F894DEBF1F
:100650000FBECDBFDF91CF911F910F91FF90EF9013
:10066000DF9008958F929F92AF92BF92DF92EF92A8
:10067000FF920F931F93CF93DF93D82E0E94DE0239
:10068000ED2CF12C24E0E21AF108F701EE0FFF1F28
:10069000E85DFD4F1182108200E010E0D3E0E2C07F
:1006A0000E949400C82F8FEB8C0F41E0823008F439
:1006B00040E031E0C33409F430E021E0C43409F40F
:1006C00020E091E0C53409F490E081E0C63409F4FB
:1006D00080E051E0C83409F450E03423232392230E
:1006E000892309F4A1C0552309F49EC0D330B1F584
:1006F000CC23A1F16D2F70E061507109072E000C21
:10070000880B990B0E94C5089B01AC0160E070E06A
:1007100080E291E40E94BE094B015C016C2F70E005
:1007200080E090E00E94C508A50194010E94510953
:100730004B015C01B801110F880B990B0E94C50891
:10074000A50194010E94210820E030E040E85FE329
:100750000E9421080E948D088B0135C08FEF8D0FFC
:10076000823020F0D33079F5C1112DC06D2F70E0AB
:1007700061507109072E000C880B990B0E94C50867
:100780009B01AC0160E070E080E291E40E94BE0950
:100790004B015C016C2F70E080E090E00E94C50886
:1007A000A50194010E9451094B015C01B801110F90
:1007B000880B990B0E94C508A50194010E9421088D
:1007C0000E948D088B010F3F110509F05CF4F701C1
:1007D000EE0FFF1FE85DFD4F118300830E94600252
:1007E000D1501EC0F701EE0FFF1FE85DFD4F0081E5
:1007F00011810E94950189E991E00E949C0160E0CD
:1008000081E00E94A90188EA91E00E949C018FEF9B
:1008100094E32CE0815090402040E1F700C00000BC
:100820008D2D0E94DE021EC0C134D9F0C534D1F432
:100830006AE083E00E94A90186EB91E00E949C019E
:100840008FE79AE126E0815090402040E1F700C018
:10085000000082E080932E020E9483020E947802B0
:1008600001C0D0E0D1111CCFDF91CF911F910F912A
:10087000FF90EF90DF90BF90AF909F908F90089582
:100880009F92AF92BF92CF92DF92EF92FF920F931F
:100890001F93CF93DF93CDB7DEB7A7970FB6F8942A
:1008A000DEBF0FBECDBF87B1886387B980E2EBE6BC
:1008B000F1E0DE01119601900D928A95E1F7912CFD
:1008C0006FC00E949501A92CB12CC501829592950B
:1008D000907F9827807F982721E030E02C0F3D1FE4
:1008E000820F931F0E949C01C12CD12C08E052C0A2
:1008F00088B1802B88B93FEF89E698E1315080407C
:100900009040E1F700C0000010E0E12CF12C0CC099
:1009100080E00E94D401E80EF91E8FE493EC019769
:10092000F1F700C000001F5F123390F39501220F12
:10093000331F2A0D3B1D2C0D3D1DC70162E370E0E6
:100940000E94C10BCB01220F331FF901E45FFE4F60
:10095000718360834AE0BE016F5D7F4F0E94E90BA7
:1009600060E083E00E94A901CE0181960E949C0173
:100970009FEF29E638E1915020403040E1F700C078
:10098000000088B1902F9095892388B9000F8FEFD0
:10099000C81AD80A93E0C916D1040CF4A9CF9394CD
:1009A00021E0291508F08DCFA7960FB6F894DEBF89
:1009B0000FBECDBFDF91CF911F910F91FF90EF90B0
:1009C000DF90CF90BF90AF909F900895CF92DF922D
:1009D000EF92FF920F931F93CF93DF93CDB7DEB7C4
:1009E00027970FB6F894DEBF0FBECDBF0E949501CA
:1009F00089EB91E00E949C012FEF89E698E121505C
:100A000080409040E1F700C0000060E082E00E947A
:100A1000A90188EC91E00E949C012FEF84E39CE007
:100A2000215080409040E1F700C000000E949501F5
:100A300089EB91E00E949C0187B1886387B9C12C42
:100A4000D12C08E071C088B1802B88B92FEF84E3E6
:100A50009CE0215080409040E1F700C0000010E091
:100A6000E12CF12C0CC080E00E94D401E80EF91EAC
:100A70008FE493EC0197F1F700C000001F5F123381
:100A800090F32FEF2E9DC0012F9D900D1124F601A4
:100A90003396EE0FFF1FE45FFE4F408151819601B8
:100AA000220F331FF901E45FFE4F60817181461B05
:100AB000570BE2E3E49FB001E59F700D11240E9403
:100AC000C10BFB01D901AA5FBE4F6D937C93C70197
:100AD00062E370E00E94C10BD901AE5DBD4F6D9322
:100AE0007C934AE0BE016F5F7F4FCF010E94E90B0C
:100AF00060E083E00E94A901CE0101960E949C0162
:100B00009FEF29E688E1915020408040E1F700C046
:100B1000000088B1902F9095892388B90E944802DF
:100B2000000F9FEFC91AD90A23E0C216D1040CF4B2
:100B30008ACF8FEF93ED20E3815090402040E1F782
:100B400000C000000E94780227960FB6F894DEBF1E
:100B50000FBECDBFDF91CF911F910F91FF90EF900E
:100B6000DF90CF9008954F925F926F927F928F9215
:100B70009F92AF92BF92CF92DF92EF92FF92CF936C
:100B8000DF9300D000D0CDB7DEB7E2E2F2E06081C3
:100B90007181072E000C880B990B0E94C5086B0110
:100BA0007C0120E030E040E05FE30E94BE092EEBD4
:100BB00036E143E254E40E94510922E236E545EA77
:100BC00055E40E9420084B015C012AE736EF40ED16
:100BD00051E4C701B6010E9451099B01AC01C50156
:100BE000B4010E9420084B015C0120E030E040ECA1
:100BF0005FE3C701B6010E94BE092AE930ED44EB6C
:100C00005EE30E9451099B01AC01C501B4010E9441
:100C100021080E948D086B017C0160912402709173
:100C20002502072E000C880B990B0E94C5084B016A
:100C30005C0120E030E040E05FE30E94BE092DE56A
:100C40003DEF47EA53E40E94510926E53EEF4DE0AF
:100C500055E40E9420082B013C0127E63AEC44E7CA
:100C600051E4C501B4010E9451099B01AC01C301CB
:100C7000B2010E9420082B013C0120E030E040EC52
:100C80005FE3C501B4010E94BE092FE53CE741E7DF
:100C90005EE30E9451099B01AC01C301B2010E94B5
:100CA00021080E948D084B015C0160912602709121
:100CB0002702072E000C880B990B0E94C508698338
:100CC0007A838B839C8320E030E040E05FE30E94E6
:100CD000BE092AE635ED4CE054E40E94510925E3B3
:100CE00038EC42E855E40E9420082B013C012BEC33
:100CF00037E142EC51E469817A818B819C810E94C9
:100D000051099B01AC01C301B2010E9420082B01D3
:100D10003C0120E030E040EC5FE369817A818B8127
:100D20009C810E94BE092EE936E044EB5EE30E94FE
:100D300051099B01AC01C301B2010E9421080E942C
:100D40008D082091060130910701C20ED31EDD20CF
:100D50001CF4FFEFCF1ADF0AD594C7942091080145
:100D600030910901280D391D332314F42F5F3F4FB3
:100D70003595279540910A0150910B01640F751F1D
:100D8000772314F46F5F7F4F75956795E0E0F1E08E
:100D9000D182C082338322837583648380E090E0B4
:100DA0001FC0FC01EE0FFF1FE050FF4F208131817B
:100DB000332344F4FC01EE0FFF1FE050FF4F11827C
:100DC00010820DC02F3F310551F04CF0FC01EE0FA9
:100DD000FF1FE050FF4F2FEF30E03183208301965B
:100DE00083309105F4F20E94F0012FEF81E19AE740
:100DF000215080409040E1F700C000000E9478023E
:100E00000F900F900F900F90DF91CF91FF90EF9088
:100E1000DF90CF90BF90AF909F908F907F906F901A
:100E20005F904F9008950E94780165E081E00E94F4
:100E3000A9018AED91E00E949C0167E082E00E9496
:100E4000A90185EE91E00E949C012FEF89E698E1CF
:100E5000215080409040E1F700C000000E94E9016D
:100E60000E9495010E9483020E94BE028230E9F135
:100E700018F4813039F0F8CF8330B1F3853009F4BC
:100E8000CAC0F2CF20912E022F5F20932E028091B4
:100E90001A01281718F40E948302E6CF281788F059
:100EA000622F70E0482F50E04D5F5F4F6417750769
:100EB00044F490911801943121F0822F0E94DE02B7
:100EC000D3CF30E0482F50E04D5F5F4F24173507F8
:100ED0004CF090911801943129F080932E020E94D9
:100EE000DE02C2CF0E948302BFCF80912E02811109
:100EF00010C00E9495010E9440042FEF89E698E1FE
:100F0000215080409040E1F700C000000E94830221
:100F1000ABCF813031F50E94950180910C01909109
:100F20000D01019661F00E94E6048FE79AE126E048
:100F3000815090402040E1F700C000000FC08CEECF
:100F400091E00E949C018FEF94E32CE0815090404F
:100F50002040E1F700C0000010922E020E948302A0
:100F600083CF823049F48093180180911A018093D5
:100F70002E020E94DE0278CF8330A1F50E949501F7
:100F800080910C0190910D010196D1F080910601A4
:100F900090910701019619F00E94B30520C08CEFD3
:100FA00091E00E949C018FEF94E32CE081509040EF
:100FB0002040E1F700C0000081E080932E020FC0C6
:100FC00088E092E00E949C018FEF94E32CE0815036
:100FD00090402040E1F700C0000010922E020E94D5
:100FE000830242CF843008F43FCF6AE083E00E945E
:100FF000A90186EB91E00E949C018FE79AE126E02F
:10100000815090402040E1F700C0000080912E0206
:101010000E94320329CF0E94780290912E02809183
:101020001A01981708F420CF0E94780280911801C5
:1010300080932E0284E1809318010E94830214CFD2
:101040005058BB27AA270E9438080C9417090E9401
:10105000090938F00E94100920F039F49F3F19F473
:1010600026F40C9406090EF4E095E7FB0C940009B5
:10107000E92F0E94280958F3BA17620773078407FB
:10108000950720F079F4A6F50C944A090EF4E09542
:101090000B2EBA2FA02D0B01B90190010C01CA0132
:1010A000A0011124FF27591B99F0593F50F4503EDD
:1010B00068F11A16F040A22F232F342F4427585FCF
:1010C000F3CF469537952795A795F0405395C9F7E7
:1010D0007EF41F16BA0B620B730B840BBAF091509F
:1010E000A1F0FF0FBB1F661F771F881FC2F70EC03E
:1010F000BA0F621F731F841F48F487957795679511
:10110000B795F7959E3F08F0B0CF9395880F08F0FC
:101110009927EE0F9795879508950E9494086894F3
:10112000B1110C944B0908950E94300988F09F5723
:1011300098F0B92F9927B751B0F0E1F0660F771FFB
:10114000881F991F1AF0BA95C9F714C0B13091F0F1
:101150000E944A09B1E008950C944A09672F782F3C
:101160008827B85F39F0B93FCCF3869577956795B6
:10117000B395D9F73EF490958095709561957F4F22
:101180008F4F9F4F0895E89409C097FB3EF49095C8
:101190008095709561957F4F8F4F9F4F9923A9F050
:1011A000F92F96E9BB279395F695879577956795DF
:1011B000B795F111F8CFFAF4BB0F11F460FF1BC023
:1011C0006F5F7F4F8F4F9F4F16C0882311F096E9B6
:1011D00011C0772321F09EE8872F762F05C0662364
:1011E00071F096E8862F70E060E02AF09A95660F1D
:1011F000771F881FDAF7880F9695879597F90895D6
:1012000097F99F6780E870E060E008959FEF80ECB9
:10121000089500240A94161617061806090608955C
:1012200000240A9412161306140605060895092EC2
:101230000394000C11F4882352F0BB0F40F4BF2B31
:1012400011F460FF04C06F5F7F4F8F4F9F4F089571
:1012500057FD9058440F551F59F05F3F71F0479567
:10126000880F97FB991F61F09F3F79F0879508954C
:10127000121613061406551FF2CF4695F1DF08C06B
:10128000161617061806991FF1CF86957105610588
:1012900008940895E894BB2766277727CB0197F930
:1012A00008950E9464090C9417090E94090938F0F6
:1012B0000E94100920F0952311F00C9400090C9461
:1012C000060911240C944B090E94280970F3959F7C
:1012D000C1F3950F50E0551F629FF001729FBB272D
:1012E000F00DB11D639FAA27F00DB11DAA1F649FC9
:1012F0006627B00DA11D661F829F2227B00DA11D7C
:10130000621F739FB00DA11D621F839FA00D611D01
:10131000221F749F3327A00D611D231F849F600D22
:10132000211D822F762F6A2F11249F5750409AF04B
:10133000F1F088234AF0EE0FFF1FBB1F661F771FD7
:10134000881F91505040A9F79E3F510580F00C94A2
:1013500000090C944B095F3FE4F3983ED4F3869563
:1013600077956795B795F795E7959F5FC1F7FE2B42
:10137000880F911D9695879597F90895FA01EE0FBC
:10138000FF1F309621053105A1F16115710561F44A
:101390008038BFE39B0749F168949038810561F07C
:1013A0008038BFEF9B0741F099234AF5FF3FE105E5
:1013B0003105210519F1E8940894E795D901AA238C
:1013C00029F4AB2FBE2FF85FD0F310C0FF5F70F48D
:1013D000A695E0F7F73950F019F0FF3A38F49F7707
:1013E0009F930DD00F9007FC9058089546F00C94F1
:1013F000060960E070E080E89FE308954FE79F777B
:101400005F934F933F932F930E94B90A2F913F917F
:101410004F915F910E9451090C94160A29F416F01D
:101420000C9400090C944A090C9406090E94300996
:10143000A8F39638A0F707F80F92E8942BE33AEA5E
:1014400048EB5FE70E9467090F920F920F924DB72A
:101450005EB70F920E94010BE8E6F0E00E94480A96
:101460004F915F91EF91FF91E595EE1FFF1F49F0BE
:10147000FE57E0684427EE0F441FFA95E1F74195C7
:10148000550B0E947B0A0F9007FE0C946F0A08957B
:10149000DF93CF931F930F93FF92EF92DF927B0125
:1014A0008C01689406C0DA2EEF010E946409FE01E7
:1014B000E894A5912591359145915591A6F3EF01B9
:1014C0000E943808FE019701A801DA9469F7DF90BD
:1014D000EF90FF900F911F91CF91DF9108959B01A5
:1014E000AC0160E070E080E89FE30C94350B0C9455
:1014F00000090C94A70B0E943009D8F39923C9F373
:10150000940F511DA3F39150504094F059F088234B
:1015100032F0660F771F881F91505040C1F79E3FF1
:1015200051052CF7880F911D9695879597F9089589
:101530005F3FACF0983E9CF0BB278695779567950A
:10154000B79508F4B1609395C1F7BB0F58F711F444
:1015500060FFE8CF6F5F7F4F8F4F9F4FE3CF0C94BB
:101560004B0916F00C94A70B0C94060968940C9484
:1015700000090E943009A8F39923C1F3AEF3DF9369
:10158000CF931F930F93FF92C92FDD2788232AF053
:101590002197660F771F881FDAF720E030E040E8D8
:1015A0005FEB9FE3883920F0803E38F021968F77FB
:1015B0000E942108E0E9F0E004C00E942108EDEB60
:1015C000F0E00E94480A8B01BE01EC01FB2E6F5730
:1015D00071097595771F880B990B0E94C50828E142
:1015E00032E741E35FE30E946409AF2D9801AE0149
:1015F000FF900F911F91CF91DF910E9438080C94BA
:101600001709FA01DC01AA0FBB1F9B01AC01BF57F0
:1016100028F4222733274427507820C0B75190F46C
:10162000AB2F0024469537952795011CA395D2F33F
:10163000002071F0220F331F441FB395DAF30ED050
:101640000C94200861307105A0E88A07B94630F48F
:101650009B01AC016627772788279078309621F088
:10166000208331834283538308950E94490B0C9455
:1016700017090E94100958F00E94090940F029F446
:101680005F3F29F00C94000951110C944B090C9404
:1016900006090E94280968F39923B1F3552391F3B1
:1016A000951B550BBB27AA2762177307840738F0D1
:1016B0009F5F5F4F220F331F441FAA1FA9F335D02E
:1016C0000E2E3AF0E0E832D091505040E695001CE2
:1016D000CAF72BD0FE2F29D0660F771F881FBB1F9C
:1016E000261737074807AB07B0E809F0BB0B802D7A
:1016F000BF01FF2793585F4F3AF09E3F510578F0A6
:101700000C9400090C944B095F3FE4F3983ED4F32A
:10171000869577956795B795F7959F5FC9F7880F79
:10172000911D9695879597F90895E1E0660F771FCB
:10173000881FBB1F621773078407BA0720F0621B5C
:10174000730B840BBA0BEE1F88F7E09508959F3F4B
:1017500031F0915020F4879577956795B795880F6C
:10176000911D9695879597F90895991B79E004C086
:10177000991F961708F0961B881F7A95C9F78095D0
:10178000089597FB072E16F4009407D077FD09D033
:101790000E94D50B07FC05D03EF4909581959F4F94
:1017A0000895709561957F4F0895AA1BBB1B51E169
:1017B00007C0AA1FBB1FA617B70710F0A61BB70BC1
:1017C000881F991F5A95A9F780959095BC01CD0166
:1017D0000895BB274A3031F4992322F4BDE2909555
:1017E00081959F4F0C94F50BBB27FB015527AA272A
:1017F000880F991FAA1FA41710F0A41B839550519E
:10180000B9F7A05DAA3308F0A95DA193009779F715
:10181000B111B1931192CB010C940E0CDC01FC01BF
:10182000672F71917723E1F7329704C07C916D9314
:1018300070836291AE17BF07C8F30895F894FFCF85
:1018400064000A00FF00FFFFFFFFFFFFFFFFFFFF35
:10185000FFFFFFFFFFFFFFFF14FF04312E43616C0A
:101860006962726174696F6E000000322E53656E9A
:10187000736F72204D6F6465000000332E496E70E7
:101880007574205247420000000000342E50726FE1
:1018900063657373205247420000004600454401CF
:1018A0000203430405064207080941486F6C64209F
:1018B0005768697465000000000000486F6C642080
:1018C000426C61636B000000000000522020204742
:1018D00020202042005F5F5F00496E636C75646585
:1018E0002056616C756573004C6573732074686174
:1018F0006E20323535002A2A00486F6C64207468E7
:101900006520436F6C6F720053656E73696E67205C
:101910007374617274206E6F770052474220436F78
:101920006C6F75720053656E736F720043616C6902
:1019300062726174652046697273740073656E73B8
:10194000652046697273740043616C6962726174E8
:101950006520616E642053656E73652046697273FD
:02196000740011
:00000001FF
